{
  "_format": "hh-sol-artifact-1",
  "contractName": "CharacterNftContract",
  "sourceName": "contracts/CharacterNftContract.sol",
  "abi": [
    {
      "inputs": [],
      "stateMutability": "nonpayable",
      "type": "constructor"
    },
    {
      "anonymous": false,
      "inputs": [
        {
          "indexed": true,
          "internalType": "address",
          "name": "owner",
          "type": "address"
        },
        {
          "indexed": true,
          "internalType": "address",
          "name": "approved",
          "type": "address"
        },
        {
          "indexed": true,
          "internalType": "uint256",
          "name": "tokenId",
          "type": "uint256"
        }
      ],
      "name": "Approval",
      "type": "event"
    },
    {
      "anonymous": false,
      "inputs": [
        {
          "indexed": true,
          "internalType": "address",
          "name": "owner",
          "type": "address"
        },
        {
          "indexed": true,
          "internalType": "address",
          "name": "operator",
          "type": "address"
        },
        {
          "indexed": false,
          "internalType": "bool",
          "name": "approved",
          "type": "bool"
        }
      ],
      "name": "ApprovalForAll",
      "type": "event"
    },
    {
      "anonymous": false,
      "inputs": [
        {
          "indexed": false,
          "internalType": "string",
          "name": "oldValue",
          "type": "string"
        },
        {
          "indexed": false,
          "internalType": "string",
          "name": "newValue",
          "type": "string"
        }
      ],
      "name": "BaseUriChanged",
      "type": "event"
    },
    {
      "anonymous": false,
      "inputs": [
        {
          "indexed": true,
          "internalType": "uint256",
          "name": "tokenId",
          "type": "uint256"
        },
        {
          "indexed": false,
          "internalType": "bytes32",
          "name": "characterClass",
          "type": "bytes32"
        }
      ],
      "name": "CharacterCreated",
      "type": "event"
    },
    {
      "anonymous": false,
      "inputs": [
        {
          "indexed": true,
          "internalType": "address",
          "name": "userAddress",
          "type": "address"
        },
        {
          "indexed": false,
          "internalType": "uint256",
          "name": "slotId",
          "type": "uint256"
        },
        {
          "indexed": true,
          "internalType": "uint256",
          "name": "characterId",
          "type": "uint256"
        },
        {
          "indexed": true,
          "internalType": "address",
          "name": "lockedAt",
          "type": "address"
        }
      ],
      "name": "CharacterLocked",
      "type": "event"
    },
    {
      "anonymous": false,
      "inputs": [
        {
          "indexed": false,
          "internalType": "bytes32",
          "name": "classHash",
          "type": "bytes32"
        },
        {
          "indexed": false,
          "internalType": "bool",
          "name": "oldValue",
          "type": "bool"
        },
        {
          "indexed": false,
          "internalType": "bool",
          "name": "newValue",
          "type": "bool"
        }
      ],
      "name": "CharacterNotTransferableChanged",
      "type": "event"
    },
    {
      "anonymous": false,
      "inputs": [
        {
          "indexed": true,
          "internalType": "address",
          "name": "userAddress",
          "type": "address"
        },
        {
          "indexed": false,
          "internalType": "uint256",
          "name": "slotId",
          "type": "uint256"
        },
        {
          "indexed": true,
          "internalType": "uint256",
          "name": "characterId",
          "type": "uint256"
        },
        {
          "indexed": true,
          "internalType": "address",
          "name": "unlockedAt",
          "type": "address"
        }
      ],
      "name": "CharacterUnlocked",
      "type": "event"
    },
    {
      "anonymous": false,
      "inputs": [
        {
          "indexed": true,
          "internalType": "bytes32",
          "name": "role",
          "type": "bytes32"
        },
        {
          "indexed": true,
          "internalType": "bytes32",
          "name": "previousAdminRole",
          "type": "bytes32"
        },
        {
          "indexed": true,
          "internalType": "bytes32",
          "name": "newAdminRole",
          "type": "bytes32"
        }
      ],
      "name": "RoleAdminChanged",
      "type": "event"
    },
    {
      "anonymous": false,
      "inputs": [
        {
          "indexed": true,
          "internalType": "bytes32",
          "name": "role",
          "type": "bytes32"
        },
        {
          "indexed": true,
          "internalType": "address",
          "name": "account",
          "type": "address"
        },
        {
          "indexed": true,
          "internalType": "address",
          "name": "sender",
          "type": "address"
        }
      ],
      "name": "RoleGranted",
      "type": "event"
    },
    {
      "anonymous": false,
      "inputs": [
        {
          "indexed": true,
          "internalType": "bytes32",
          "name": "role",
          "type": "bytes32"
        },
        {
          "indexed": true,
          "internalType": "address",
          "name": "account",
          "type": "address"
        },
        {
          "indexed": true,
          "internalType": "address",
          "name": "sender",
          "type": "address"
        }
      ],
      "name": "RoleRevoked",
      "type": "event"
    },
    {
      "anonymous": false,
      "inputs": [
        {
          "indexed": false,
          "internalType": "uint96",
          "name": "oldValue",
          "type": "uint96"
        },
        {
          "indexed": false,
          "internalType": "uint96",
          "name": "newValue",
          "type": "uint96"
        }
      ],
      "name": "RoyaltyNumeratorChanged",
      "type": "event"
    },
    {
      "anonymous": false,
      "inputs": [
        {
          "indexed": true,
          "internalType": "address",
          "name": "tokenAddress",
          "type": "address"
        },
        {
          "indexed": true,
          "internalType": "address",
          "name": "userAddress",
          "type": "address"
        },
        {
          "indexed": false,
          "internalType": "uint256",
          "name": "amount",
          "type": "uint256"
        }
      ],
      "name": "TokensSalvaged",
      "type": "event"
    },
    {
      "anonymous": false,
      "inputs": [
        {
          "indexed": true,
          "internalType": "address",
          "name": "from",
          "type": "address"
        },
        {
          "indexed": true,
          "internalType": "address",
          "name": "to",
          "type": "address"
        },
        {
          "indexed": true,
          "internalType": "uint256",
          "name": "tokenId",
          "type": "uint256"
        }
      ],
      "name": "Transfer",
      "type": "event"
    },
    {
      "anonymous": false,
      "inputs": [
        {
          "indexed": false,
          "internalType": "address",
          "name": "oldValue",
          "type": "address"
        },
        {
          "indexed": false,
          "internalType": "address",
          "name": "newValue",
          "type": "address"
        }
      ],
      "name": "VaultAddressChanged",
      "type": "event"
    },
    {
      "anonymous": false,
      "inputs": [
        {
          "indexed": true,
          "internalType": "address",
          "name": "guildAddress",
          "type": "address"
        },
        {
          "indexed": false,
          "internalType": "bool",
          "name": "oldValue",
          "type": "bool"
        },
        {
          "indexed": false,
          "internalType": "bool",
          "name": "newValue",
          "type": "bool"
        }
      ],
      "name": "WhitelistGuildChanged",
      "type": "event"
    },
    {
      "inputs": [],
      "name": "DEFAULT_ADMIN_ROLE",
      "outputs": [
        {
          "internalType": "bytes32",
          "name": "",
          "type": "bytes32"
        }
      ],
      "stateMutability": "view",
      "type": "function"
    },
    {
      "inputs": [],
      "name": "MINTER_ROLE",
      "outputs": [
        {
          "internalType": "bytes32",
          "name": "",
          "type": "bytes32"
        }
      ],
      "stateMutability": "view",
      "type": "function"
    },
    {
      "inputs": [],
      "name": "MODERATOR_ROLE",
      "outputs": [
        {
          "internalType": "bytes32",
          "name": "",
          "type": "bytes32"
        }
      ],
      "stateMutability": "view",
      "type": "function"
    },
    {
      "inputs": [
        {
          "internalType": "address",
          "name": "to",
          "type": "address"
        },
        {
          "internalType": "uint256",
          "name": "tokenId",
          "type": "uint256"
        }
      ],
      "name": "approve",
      "outputs": [],
      "stateMutability": "nonpayable",
      "type": "function"
    },
    {
      "inputs": [
        {
          "internalType": "address",
          "name": "owner",
          "type": "address"
        }
      ],
      "name": "balanceOf",
      "outputs": [
        {
          "internalType": "uint256",
          "name": "",
          "type": "uint256"
        }
      ],
      "stateMutability": "view",
      "type": "function"
    },
    {
      "inputs": [
        {
          "internalType": "uint256",
          "name": "characterId_",
          "type": "uint256"
        }
      ],
      "name": "burn",
      "outputs": [],
      "stateMutability": "nonpayable",
      "type": "function"
    },
    {
      "inputs": [
        {
          "internalType": "address",
          "name": "userAddress_",
          "type": "address"
        },
        {
          "internalType": "uint256",
          "name": "slotId_",
          "type": "uint256"
        },
        {
          "internalType": "uint256",
          "name": "characterId_",
          "type": "uint256"
        },
        {
          "internalType": "address",
          "name": "guildAddress_",
          "type": "address"
        },
        {
          "internalType": "bytes",
          "name": "extraData_",
          "type": "bytes"
        }
      ],
      "name": "externalUnlockCharacter",
      "outputs": [],
      "stateMutability": "nonpayable",
      "type": "function"
    },
    {
      "inputs": [
        {
          "internalType": "uint256",
          "name": "tokenId",
          "type": "uint256"
        }
      ],
      "name": "getApproved",
      "outputs": [
        {
          "internalType": "address",
          "name": "",
          "type": "address"
        }
      ],
      "stateMutability": "view",
      "type": "function"
    },
    {
      "inputs": [],
      "name": "getBaseURI",
      "outputs": [
        {
          "internalType": "string",
          "name": "",
          "type": "string"
        }
      ],
      "stateMutability": "view",
      "type": "function"
    },
    {
      "inputs": [
        {
          "internalType": "uint256",
          "name": "tokenId_",
          "type": "uint256"
        }
      ],
      "name": "getCharacterLockedAt",
      "outputs": [
        {
          "internalType": "address",
          "name": "",
          "type": "address"
        }
      ],
      "stateMutability": "view",
      "type": "function"
    },
    {
      "inputs": [
        {
          "internalType": "uint256",
          "name": "tokenId_",
          "type": "uint256"
        }
      ],
      "name": "getCharactersClass",
      "outputs": [
        {
          "internalType": "bytes32",
          "name": "",
          "type": "bytes32"
        }
      ],
      "stateMutability": "view",
      "type": "function"
    },
    {
      "inputs": [
        {
          "internalType": "bytes32",
          "name": "role",
          "type": "bytes32"
        }
      ],
      "name": "getRoleAdmin",
      "outputs": [
        {
          "internalType": "bytes32",
          "name": "",
          "type": "bytes32"
        }
      ],
      "stateMutability": "view",
      "type": "function"
    },
    {
      "inputs": [
        {
          "internalType": "bytes32",
          "name": "role",
          "type": "bytes32"
        },
        {
          "internalType": "uint256",
          "name": "index",
          "type": "uint256"
        }
      ],
      "name": "getRoleMember",
      "outputs": [
        {
          "internalType": "address",
          "name": "",
          "type": "address"
        }
      ],
      "stateMutability": "view",
      "type": "function"
    },
    {
      "inputs": [
        {
          "internalType": "bytes32",
          "name": "role",
          "type": "bytes32"
        }
      ],
      "name": "getRoleMemberCount",
      "outputs": [
        {
          "internalType": "uint256",
          "name": "",
          "type": "uint256"
        }
      ],
      "stateMutability": "view",
      "type": "function"
    },
    {
      "inputs": [],
      "name": "getRoyaltyNumerator",
      "outputs": [
        {
          "internalType": "uint96",
          "name": "",
          "type": "uint96"
        }
      ],
      "stateMutability": "view",
      "type": "function"
    },
    {
      "inputs": [],
      "name": "getVaultAddress",
      "outputs": [
        {
          "internalType": "address",
          "name": "",
          "type": "address"
        }
      ],
      "stateMutability": "view",
      "type": "function"
    },
    {
      "inputs": [
        {
          "internalType": "bytes32",
          "name": "role",
          "type": "bytes32"
        },
        {
          "internalType": "address",
          "name": "account",
          "type": "address"
        }
      ],
      "name": "grantRole",
      "outputs": [],
      "stateMutability": "nonpayable",
      "type": "function"
    },
    {
      "inputs": [
        {
          "internalType": "bytes32",
          "name": "role",
          "type": "bytes32"
        },
        {
          "internalType": "address",
          "name": "account",
          "type": "address"
        }
      ],
      "name": "hasRole",
      "outputs": [
        {
          "internalType": "bool",
          "name": "",
          "type": "bool"
        }
      ],
      "stateMutability": "view",
      "type": "function"
    },
    {
      "inputs": [
        {
          "internalType": "address",
          "name": "defaultAdminAddress_",
          "type": "address"
        },
        {
          "internalType": "address",
          "name": "moderatorAddress_",
          "type": "address"
        },
        {
          "internalType": "address",
          "name": "vaultAddress_",
          "type": "address"
        },
        {
          "internalType": "address[]",
          "name": "minterAddressArray_",
          "type": "address[]"
        },
        {
          "internalType": "uint96",
          "name": "royaltyNumerator_",
          "type": "uint96"
        }
      ],
      "name": "init",
      "outputs": [],
      "stateMutability": "nonpayable",
      "type": "function"
    },
    {
      "inputs": [
        {
          "internalType": "address",
          "name": "owner",
          "type": "address"
        },
        {
          "internalType": "address",
          "name": "operator",
          "type": "address"
        }
      ],
      "name": "isApprovedForAll",
      "outputs": [
        {
          "internalType": "bool",
          "name": "",
          "type": "bool"
        }
      ],
      "stateMutability": "view",
      "type": "function"
    },
    {
      "inputs": [
        {
          "internalType": "uint256",
          "name": "tokenId_",
          "type": "uint256"
        }
      ],
      "name": "isCharacterLocked",
      "outputs": [
        {
          "internalType": "bool",
          "name": "",
          "type": "bool"
        }
      ],
      "stateMutability": "view",
      "type": "function"
    },
    {
      "inputs": [
        {
          "internalType": "address",
          "name": "guildAddress_",
          "type": "address"
        }
      ],
      "name": "isGuildWhitelisted",
      "outputs": [
        {
          "internalType": "bool",
          "name": "",
          "type": "bool"
        }
      ],
      "stateMutability": "view",
      "type": "function"
    },
    {
      "inputs": [],
      "name": "isInitialised",
      "outputs": [
        {
          "internalType": "bool",
          "name": "",
          "type": "bool"
        }
      ],
      "stateMutability": "view",
      "type": "function"
    },
    {
      "inputs": [
        {
          "internalType": "bytes32",
          "name": "classHash",
          "type": "bytes32"
        }
      ],
      "name": "isTransferable",
      "outputs": [
        {
          "internalType": "bool",
          "name": "",
          "type": "bool"
        }
      ],
      "stateMutability": "view",
      "type": "function"
    },
    {
      "inputs": [
        {
          "internalType": "uint256",
          "name": "slotId_",
          "type": "uint256"
        },
        {
          "internalType": "uint256",
          "name": "characterId_",
          "type": "uint256"
        },
        {
          "internalType": "address",
          "name": "guildAddress_",
          "type": "address"
        },
        {
          "internalType": "bytes",
          "name": "extraData_",
          "type": "bytes"
        }
      ],
      "name": "lockCharacter",
      "outputs": [],
      "stateMutability": "nonpayable",
      "type": "function"
    },
    {
      "inputs": [],
      "name": "name",
      "outputs": [
        {
          "internalType": "string",
          "name": "",
          "type": "string"
        }
      ],
      "stateMutability": "view",
      "type": "function"
    },
    {
      "inputs": [],
      "name": "owner",
      "outputs": [
        {
          "internalType": "address",
          "name": "",
          "type": "address"
        }
      ],
      "stateMutability": "view",
      "type": "function"
    },
    {
      "inputs": [
        {
          "internalType": "uint256",
          "name": "tokenId",
          "type": "uint256"
        }
      ],
      "name": "ownerOf",
      "outputs": [
        {
          "internalType": "address",
          "name": "",
          "type": "address"
        }
      ],
      "stateMutability": "view",
      "type": "function"
    },
    {
      "inputs": [
        {
          "internalType": "bytes32",
          "name": "role",
          "type": "bytes32"
        },
        {
          "internalType": "address",
          "name": "account",
          "type": "address"
        }
      ],
      "name": "renounceRole",
      "outputs": [],
      "stateMutability": "nonpayable",
      "type": "function"
    },
    {
      "inputs": [
        {
          "internalType": "bytes32",
          "name": "role",
          "type": "bytes32"
        },
        {
          "internalType": "address",
          "name": "account",
          "type": "address"
        }
      ],
      "name": "revokeRole",
      "outputs": [],
      "stateMutability": "nonpayable",
      "type": "function"
    },
    {
      "inputs": [
        {
          "internalType": "uint256",
          "name": "_tokenId",
          "type": "uint256"
        },
        {
          "internalType": "uint256",
          "name": "_salePrice",
          "type": "uint256"
        }
      ],
      "name": "royaltyInfo",
      "outputs": [
        {
          "internalType": "address",
          "name": "",
          "type": "address"
        },
        {
          "internalType": "uint256",
          "name": "",
          "type": "uint256"
        }
      ],
      "stateMutability": "view",
      "type": "function"
    },
    {
      "inputs": [
        {
          "internalType": "address",
          "name": "to_",
          "type": "address"
        },
        {
          "internalType": "bytes32",
          "name": "classHash_",
          "type": "bytes32"
        }
      ],
      "name": "safeMint",
      "outputs": [
        {
          "internalType": "uint256",
          "name": "",
          "type": "uint256"
        }
      ],
      "stateMutability": "nonpayable",
      "type": "function"
    },
    {
      "inputs": [
        {
          "internalType": "address",
          "name": "from",
          "type": "address"
        },
        {
          "internalType": "address",
          "name": "to",
          "type": "address"
        },
        {
          "internalType": "uint256",
          "name": "tokenId",
          "type": "uint256"
        }
      ],
      "name": "safeTransferFrom",
      "outputs": [],
      "stateMutability": "nonpayable",
      "type": "function"
    },
    {
      "inputs": [
        {
          "internalType": "address",
          "name": "from",
          "type": "address"
        },
        {
          "internalType": "address",
          "name": "to",
          "type": "address"
        },
        {
          "internalType": "uint256",
          "name": "tokenId",
          "type": "uint256"
        },
        {
          "internalType": "bytes",
          "name": "data",
          "type": "bytes"
        }
      ],
      "name": "safeTransferFrom",
      "outputs": [],
      "stateMutability": "nonpayable",
      "type": "function"
    },
    {
      "inputs": [
        {
          "internalType": "address",
          "name": "tokenAddress_",
          "type": "address"
        },
        {
          "internalType": "address",
          "name": "to_",
          "type": "address"
        },
        {
          "internalType": "uint256",
          "name": "amount_",
          "type": "uint256"
        }
      ],
      "name": "salvageTokensFromContract",
      "outputs": [],
      "stateMutability": "nonpayable",
      "type": "function"
    },
    {
      "inputs": [
        {
          "internalType": "address",
          "name": "operator",
          "type": "address"
        },
        {
          "internalType": "bool",
          "name": "approved",
          "type": "bool"
        }
      ],
      "name": "setApprovalForAll",
      "outputs": [],
      "stateMutability": "nonpayable",
      "type": "function"
    },
    {
      "inputs": [
        {
          "internalType": "string",
          "name": "baseUri_",
          "type": "string"
        }
      ],
      "name": "setBaseURI",
      "outputs": [],
      "stateMutability": "nonpayable",
      "type": "function"
    },
    {
      "inputs": [
        {
          "internalType": "bytes32",
          "name": "classHash",
          "type": "bytes32"
        },
        {
          "internalType": "bool",
          "name": "nonTransferable_",
          "type": "bool"
        }
      ],
      "name": "setNotTransferable",
      "outputs": [],
      "stateMutability": "nonpayable",
      "type": "function"
    },
    {
      "inputs": [
        {
          "internalType": "uint96",
          "name": "royaltyNumerator_",
          "type": "uint96"
        }
      ],
      "name": "setRoyaltyNumerator",
      "outputs": [],
      "stateMutability": "nonpayable",
      "type": "function"
    },
    {
      "inputs": [
        {
          "internalType": "uint256",
          "name": "tokenId_",
          "type": "uint256"
        },
        {
          "internalType": "string",
          "name": "tokenUri_",
          "type": "string"
        }
      ],
      "name": "setTokenURI",
      "outputs": [],
      "stateMutability": "nonpayable",
      "type": "function"
    },
    {
      "inputs": [
        {
          "internalType": "address",
          "name": "vaultAddress_",
          "type": "address"
        }
      ],
      "name": "setVaultAddress",
      "outputs": [],
      "stateMutability": "nonpayable",
      "type": "function"
    },
    {
      "inputs": [
        {
          "internalType": "address",
          "name": "guildAddress_",
          "type": "address"
        },
        {
          "internalType": "bool",
          "name": "isWhitelisted_",
          "type": "bool"
        }
      ],
      "name": "setWhitelistGuild",
      "outputs": [],
      "stateMutability": "nonpayable",
      "type": "function"
    },
    {
      "inputs": [
        {
          "internalType": "bytes4",
          "name": "interfaceId",
          "type": "bytes4"
        }
      ],
      "name": "supportsInterface",
      "outputs": [
        {
          "internalType": "bool",
          "name": "",
          "type": "bool"
        }
      ],
      "stateMutability": "view",
      "type": "function"
    },
    {
      "inputs": [],
      "name": "symbol",
      "outputs": [
        {
          "internalType": "string",
          "name": "",
          "type": "string"
        }
      ],
      "stateMutability": "view",
      "type": "function"
    },
    {
      "inputs": [
        {
          "internalType": "uint256",
          "name": "index",
          "type": "uint256"
        }
      ],
      "name": "tokenByIndex",
      "outputs": [
        {
          "internalType": "uint256",
          "name": "",
          "type": "uint256"
        }
      ],
      "stateMutability": "view",
      "type": "function"
    },
    {
      "inputs": [
        {
          "internalType": "address",
          "name": "owner",
          "type": "address"
        },
        {
          "internalType": "uint256",
          "name": "index",
          "type": "uint256"
        }
      ],
      "name": "tokenOfOwnerByIndex",
      "outputs": [
        {
          "internalType": "uint256",
          "name": "",
          "type": "uint256"
        }
      ],
      "stateMutability": "view",
      "type": "function"
    },
    {
      "inputs": [
        {
          "internalType": "uint256",
          "name": "tokenId",
          "type": "uint256"
        }
      ],
      "name": "tokenURI",
      "outputs": [
        {
          "internalType": "string",
          "name": "",
          "type": "string"
        }
      ],
      "stateMutability": "view",
      "type": "function"
    },
    {
      "inputs": [],
      "name": "totalSupply",
      "outputs": [
        {
          "internalType": "uint256",
          "name": "",
          "type": "uint256"
        }
      ],
      "stateMutability": "view",
      "type": "function"
    },
    {
      "inputs": [
        {
          "internalType": "address",
          "name": "from",
          "type": "address"
        },
        {
          "internalType": "address",
          "name": "to",
          "type": "address"
        },
        {
          "internalType": "uint256",
          "name": "tokenId",
          "type": "uint256"
        }
      ],
      "name": "transferFrom",
      "outputs": [],
      "stateMutability": "nonpayable",
      "type": "function"
    },
    {
      "inputs": [
        {
          "internalType": "uint256",
          "name": "slotId_",
          "type": "uint256"
        },
        {
          "internalType": "uint256",
          "name": "characterId_",
          "type": "uint256"
        },
        {
          "internalType": "address",
          "name": "guildAddress_",
          "type": "address"
        },
        {
          "internalType": "bytes",
          "name": "extraData_",
          "type": "bytes"
        }
      ],
      "name": "unlockCharacter",
      "outputs": [],
      "stateMutability": "nonpayable",
      "type": "function"
    }
  ],
  "bytecode": "0x60806040523480156200001157600080fd5b50604080518082018252601381527f456c6466616c6c4368617261637465724e66740000000000000000000000000060208083019182528351808501909452600384526222a1a760e91b90840152815191929162000072916002916200022b565b508051620000889060039060208401906200022b565b506200009a91506000905033620000d1565b6040518060600160405280602a815260200162003e00602a91398051620000ca916011916020909101906200022b565b506200030e565b620000e882826200011460201b62001a6b1760201c565b6000828152600e602090815260409091206200010f91839062001af1620001b9821b17901c565b505050565b6000828152600d602090815260408083206001600160a01b038516845290915290205460ff16620001b5576000828152600d602090815260408083206001600160a01b03851684529091529020805460ff19166001179055620001743390565b6001600160a01b0316816001600160a01b0316837f2f8788117e7eff1d82e926ec794901d17c78024a50270940304540a733656f0d60405160405180910390a45b5050565b6000620001d0836001600160a01b038416620001d9565b90505b92915050565b60008181526001830160205260408120546200022257508154600181810184556000848152602080822090930184905584548482528286019093526040902091909155620001d3565b506000620001d3565b8280546200023990620002d1565b90600052602060002090601f0160209004810192826200025d5760008555620002a8565b82601f106200027857805160ff1916838001178555620002a8565b82800160010185558215620002a8579182015b82811115620002a85782518255916020019190600101906200028b565b50620002b6929150620002ba565b5090565b5b80821115620002b65760008155600101620002bb565b600181811c90821680620002e657607f821691505b602082108114156200030857634e487b7160e01b600052602260045260246000fd5b50919050565b613ae2806200031e6000396000f3fe608060405234801561001057600080fd5b50600436106102d65760003560e01c806365cacaa411610182578063a0929cda116100e9578063ca15c873116100a2578063d547741f1161007c578063d547741f146106f0578063e3da941714610703578063e985e9c514610716578063f306c40e1461075257600080fd5b8063ca15c873146106a3578063d4873baf146106b6578063d5391393146106c957600080fd5b8063a0929cda1461062f578063a217fddf14610642578063a22cb4651461064a578063af6c20f51461065d578063b88d4fde1461067d578063c87b56dd1461069057600080fd5b806385535cc51161013b57806385535cc5146105db5780638da5cb5b146105ee5780639010d07c146105f657806391d148541461060957806395d89b411461061c5780639ed3c90c1461062457600080fd5b806365cacaa41461057457806367d51cc41461058557806370a0823114610598578063714c5398146105ab578063721f661b146105b3578063797669c9146105c657600080fd5b80632f2ff15d1161024157806346255a45116101fa5780634f6ccce7116101d45780634f6ccce71461052857806355f804b31461053b57806360f8965d1461054e5780636352211e1461056157600080fd5b806346255a45146104bf5780634b7c9796146104d25780634f2ff7ae146104fd57600080fd5b80632f2ff15d146104345780632f745c591461044757806336568abe1461045a5780633fe76ddf1461046d57806342842e0e1461049957806342966c68146104ac57600080fd5b8063194874cc11610293578063194874cc1461037d57806323b872dd1461039057806324106ee9146103a3578063248a9ca3146103b6578063269b53ee146103d95780632a55205a1461040257600080fd5b806301ffc9a7146102db57806306fdde0314610303578063081812fc14610318578063095ea7b314610343578063162094c41461035857806318160ddd1461036b575b600080fd5b6102ee6102e9366004613091565b610776565b60405190151581526020015b60405180910390f35b61030b6107a1565b6040516102fa9190613106565b61032b610326366004613119565b610833565b6040516001600160a01b0390911681526020016102fa565b61035661035136600461314e565b61085a565b005b61035661036636600461322f565b610975565b600a545b6040519081526020016102fa565b61035661038b366004613276565b610997565b61035661039e3660046132e8565b610a83565b6103566103b1366004613324565b610ab4565b61036f6103c4366004613119565b6000908152600d602052604090206001015490565b61032b6103e7366004613119565b6000908152601660205260409020546001600160a01b031690565b610415610410366004613385565b610c98565b604080516001600160a01b0390931683526020830191909152016102fa565b6103566104423660046133a7565b610d44565b61036f61045536600461314e565b610d69565b6103566104683660046133a7565b610dff565b6102ee61047b3660046133d3565b6001600160a01b031660009081526013602052604090205460ff1690565b6103566104a73660046132e8565b610e7d565b6103566104ba366004613119565b610e98565b6103566104cd366004613405565b610f59565b6102ee6104e0366004613119565b6000908152601660205260409020546001600160a01b0316151590565b601054600160a01b90046001600160601b03166040516001600160601b0390911681526020016102fa565b61036f610536366004613119565b611080565b6103566105493660046134f7565b611113565b61035661055c36600461352c565b611178565b61032b61056f366004613119565b61123c565b6010546001600160a01b031661032b565b61036f61059336600461314e565b611247565b61036f6105a63660046133d3565b611314565b61030b61139a565b6103566105c1366004613324565b6113a9565b61036f600080516020613a8d83398151915281565b6103566105e93660046133d3565b611576565b61032b611626565b61032b610604366004613385565b61163d565b6102ee6106173660046133a7565b61165c565b61030b611687565b60125460ff166102ee565b61035661063d3660046132e8565b611696565b61036f600081565b610356610658366004613557565b611832565b61036f61066b366004613119565b60009081526014602052604090205490565b61035661068b366004613581565b61183d565b61030b61069e366004613119565b611875565b61036f6106b1366004613119565b611880565b6103566106c4366004613557565b611897565b61036f7f9f2df0fed2c77648de5860a4cc508cd0818c85b8b8a1ab4ceeef8d981c8956a681565b6103566106fe3660046133a7565b611977565b6103566107113660046135d1565b61199c565b6102ee6107243660046135f4565b6001600160a01b03918216600090815260076020908152604080832093909416825291909152205460ff1690565b6102ee610760366004613119565b60009081526015602052604090205460ff161590565b60006001600160e01b03198216637f2332c760e11b148061079b575061079b82611b06565b92915050565b6060600280546107b09061361e565b80601f01602080910402602001604051908101604052809291908181526020018280546107dc9061361e565b80156108295780601f106107fe57610100808354040283529160200191610829565b820191906000526020600020905b81548152906001019060200180831161080c57829003601f168201915b5050505050905090565b600061083e82611b2b565b506000908152600660205260409020546001600160a01b031690565b600061086582611b8a565b9050806001600160a01b0316836001600160a01b031614156108d85760405162461bcd60e51b815260206004820152602160248201527f4552433732313a20617070726f76616c20746f2063757272656e74206f776e656044820152603960f91b60648201526084015b60405180910390fd5b336001600160a01b03821614806108f457506108f48133610724565b6109665760405162461bcd60e51b815260206004820152603e60248201527f4552433732313a20617070726f76652063616c6c6572206973206e6f7420746f60448201527f6b656e206f776e6572206e6f7220617070726f76656420666f7220616c6c000060648201526084016108cf565b6109708383611bea565b505050565b600080516020613a8d83398151915261098d81611c58565b6109708383611c62565b600080516020613a8d8339815191526109af81611c58565b60405163793aa72760e11b81526001600160a01b0384169063f2754e4e906109e1903390899089908890600401613659565b600060405180830381600087803b1580156109fb57600080fd5b505af1158015610a0f573d6000803e3d6000fd5b5050506000858152601660205260409081902080546001600160a01b0319169055516001600160a01b0385811692508691908916907f722ec5cd2fd8a1b24dd0b01675242b594f258def50dc633e8b8b31b7e5c59ece90610a73908a815260200190565b60405180910390a4505050505050565b610a8d3382611cfc565b610aa95760405162461bcd60e51b81526004016108cf90613690565b610970838383611d7b565b610abd8361123c565b6001600160a01b0316336001600160a01b031614610aed5760405162461bcd60e51b81526004016108cf906136de565b6001600160a01b03821660009081526013602052604090205460ff16610b515760405162461bcd60e51b81526020600482015260196024820152784775696c64206973206e6f742077686974656c69737465642160381b60448201526064016108cf565b6000838152601660205260409020546001600160a01b03838116911614610bc45760405162461bcd60e51b815260206004820152602160248201527f436861726163746572206973206e6f74206c6f636b656420696e206775696c646044820152602160f81b60648201526084016108cf565b60405163793aa72760e11b81526001600160a01b0383169063f2754e4e90610bf6903390889088908790600401613659565b600060405180830381600087803b158015610c1057600080fd5b505af1158015610c24573d6000803e3d6000fd5b505050600084815260166020526040902080546001600160a01b0319169055506001600160a01b03821683336001600160a01b03167f722ec5cd2fd8a1b24dd0b01675242b594f258def50dc633e8b8b31b7e5c59ece87604051610c8a91815260200190565b60405180910390a450505050565b60008281526001602090815260408083208151808301909252546001600160a01b038116808352600160a01b9091046001600160601b0316928201929092528291610d0d5750604080518082019091526000546001600160a01b0381168252600160a01b90046001600160601b031660208201525b602081015160009061271090610d2c906001600160601b031687613724565b610d369190613759565b915196919550909350505050565b6000828152600d6020526040902060010154610d5f81611c58565b6109708383611f22565b6000610d7483611314565b8210610dd65760405162461bcd60e51b815260206004820152602b60248201527f455243373231456e756d657261626c653a206f776e657220696e646578206f7560448201526a74206f6620626f756e647360a81b60648201526084016108cf565b506001600160a01b03919091166000908152600860209081526040808320938352929052205490565b6001600160a01b0381163314610e6f5760405162461bcd60e51b815260206004820152602f60248201527f416363657373436f6e74726f6c3a2063616e206f6e6c792072656e6f756e636560448201526e103937b632b9903337b91039b2b63360891b60648201526084016108cf565b610e798282611f44565b5050565b6109708383836040518060200160405280600081525061183d565b6000818152601660205260409020546001600160a01b0316610ef257610ebd8161123c565b6001600160a01b0316336001600160a01b031614610eed5760405162461bcd60e51b81526004016108cf906136de565b610f31565b6000818152601660205260409020546001600160a01b0316336001600160a01b031614610f315760405162461bcd60e51b81526004016108cf906136de565b600081815260166020526040902080546001600160a01b0319169055610f5681611f66565b50565b6000610f6481611c58565b60125460ff1615610fb75760405162461bcd60e51b815260206004820181905260248201527f436f6e747261637420697320616c726561647920696e697469616c697365642160448201526064016108cf565b610fc2600087611f22565b610fda600080516020613a8d83398151915286611f22565b60005b835181101561103b576110297f9f2df0fed2c77648de5860a4cc508cd0818c85b8b8a1ab4ceeef8d981c8956a685838151811061101c5761101c61376d565b6020026020010151611f22565b8061103381613783565b915050610fdd565b506001600160601b038216600160a01b026001600160a01b038516176010556012805460ff1916600117905561107860006110733390565b611f44565b505050505050565b600061108b600a5490565b82106110ee5760405162461bcd60e51b815260206004820152602c60248201527f455243373231456e756d657261626c653a20676c6f62616c20696e646578206f60448201526b7574206f6620626f756e647360a01b60648201526084016108cf565b600a82815481106111015761110161376d565b90600052602060002001549050919050565b600080516020613a8d83398151915261112b81611c58565b7f0dd4fd340cbf455a258b248b013540f5d7d6428fcd5418c9fb1261af655c42fb60118360405161115d92919061379e565b60405180910390a18151610970906011906020850190612fac565b600080516020613a8d83398151915261119081611c58565b6010546001600160601b03838116600160a01b9092041614156111c55760405162461bcd60e51b81526004016108cf9061385a565b601054604080516001600160601b03600160a01b9093048316815291841660208301527fb9948cc533bb960aa108e9618052d0f81f0931aa07cb453149e3832990eee652910160405180910390a150601080546001600160601b03909216600160a01b026001600160a01b03909216919091179055565b600061079b82611b8a565b60007f9f2df0fed2c77648de5860a4cc508cd0818c85b8b8a1ab4ceeef8d981c8956a661127381611c58565b600061127e600f5490565b905061128e600f80546001019055565b6112988582611f6f565b60008181526014602052604090208490556010546112d29082906001600160a01b03811690600160a01b90046001600160601b0316611f89565b807f2fcfc1fc201e3f3e0fc349601038f0e505659cabdf93734ccaa010fd1bb572b68560405161130491815260200190565b60405180910390a2949350505050565b60006001600160a01b03821661137e5760405162461bcd60e51b815260206004820152602960248201527f4552433732313a2061646472657373207a65726f206973206e6f7420612076616044820152683634b21037bbb732b960b91b60648201526084016108cf565b506001600160a01b031660009081526005602052604090205490565b60606113a4612097565b905090565b6113b28361123c565b6001600160a01b0316336001600160a01b0316146113e25760405162461bcd60e51b81526004016108cf906136de565b6001600160a01b03821660009081526013602052604090205460ff166114465760405162461bcd60e51b81526020600482015260196024820152784775696c64206973206e6f742077686974656c69737465642160381b60448201526064016108cf565b6000838152601660205260409020546001600160a01b0316156114ab5760405162461bcd60e51b815260206004820152601c60248201527f43686172616374657220697320616c7265616479206c6f636b6564210000000060448201526064016108cf565b60405163d1141a4960e01b81526001600160a01b0383169063d1141a49906114dd903390889088908790600401613659565b600060405180830381600087803b1580156114f757600080fd5b505af115801561150b573d6000803e3d6000fd5b505050600084815260166020526040902080546001600160a01b0319166001600160a01b038516908117909155905083336001600160a01b03167f3a64521d04c9f66f2cfc9e7cf3a9bd0f5e80b934ab3074a1713b2e10e429ce6387604051610c8a91815260200190565b600080516020613a8d83398151915261158e81611c58565b6010546001600160a01b03838116911614156115bc5760405162461bcd60e51b81526004016108cf9061385a565b601054604080516001600160a01b03928316815291841660208301527fa4f45a63389e7031375b7e4422cccea56ab403ecedbd3ce1f0587acaa1999ae3910160405180910390a150601080546001600160a01b0319166001600160a01b0392909216919091179055565b60006113a4600080516020613a8d83398151915260005b6000828152600e6020526040812061165590836120a6565b9392505050565b6000918252600d602090815260408084206001600160a01b0393909316845291905290205460ff1690565b6060600380546107b09061361e565b60006116a181611c58565b604080518082018252601981527f7472616e7366657228616464726573732c75696e74323536290000000000000060209182015281516001600160a01b0386169181019190915280820184905281518082038301815260608201909252600091611730917fa9059cbb2ab09eb219583f4a59a5d0623ade346d962bcd4e46b11da047c9049b9190608001613889565b60405160208183030381529060405290506000856001600160a01b03168260405161175b91906138ba565b6000604051808303816000865af19150503d8060008114611798576040519150601f19603f3d011682016040523d82523d6000602084013e61179d565b606091505b50509050806117dd5760405162461bcd60e51b815260206004820152600c60248201526b43616c6c206661696c65642160a01b60448201526064016108cf565b846001600160a01b0316866001600160a01b03167fc00a88ee4656f9bf9caef53a29be902b0017cf1e454eaed6526c08b8c2e106cf8660405161182291815260200190565b60405180910390a3505050505050565b610e793383836120b2565b6118473383611cfc565b6118635760405162461bcd60e51b81526004016108cf90613690565b61186f84848484612181565b50505050565b606061079b826121b4565b6000818152600e6020526040812061079b906122b0565b600080516020613a8d8339815191526118af81611c58565b6001600160a01b03831660009081526013602052604090205460ff16151582151514156118ee5760405162461bcd60e51b81526004016108cf9061385a565b6001600160a01b03831660008181526013602090815260409182902054825160ff90911615158152851515918101919091527f9c90f0f72f5ff4b59e64bdfdf8225496601bf93480e88dd55d67c7a986028ee5910160405180910390a2506001600160a01b03919091166000908152601360205260409020805460ff1916911515919091179055565b6000828152600d602052604090206001015461199281611c58565b6109708383611f44565b600080516020613a8d8339815191526119b481611c58565b60008381526015602052604090205460ff16151582151514156119e95760405162461bcd60e51b81526004016108cf9061385a565b600083815260156020526040908190205490517ff15386cd714ec83a02645b963ccf152676dea6342631a7950b9b9d707b42ad9e91611a4291869160ff1690869092835290151560208301521515604082015260600190565b60405180910390a150600091825260156020526040909120805460ff1916911515919091179055565b611a75828261165c565b610e79576000828152600d602090815260408083206001600160a01b03851684529091529020805460ff19166001179055611aad3390565b6001600160a01b0316816001600160a01b0316837f2f8788117e7eff1d82e926ec794901d17c78024a50270940304540a733656f0d60405160405180910390a45050565b6000611655836001600160a01b0384166122ba565b60006001600160e01b03198216635a05180f60e01b148061079b575061079b82612309565b6000818152600460205260409020546001600160a01b0316610f565760405162461bcd60e51b8152602060048201526018602482015277115490cdcc8c4e881a5b9d985b1a59081d1bdad95b88125160421b60448201526064016108cf565b6000818152600460205260408120546001600160a01b03168061079b5760405162461bcd60e51b8152602060048201526018602482015277115490cdcc8c4e881a5b9d985b1a59081d1bdad95b88125160421b60448201526064016108cf565b600081815260066020526040902080546001600160a01b0319166001600160a01b0384169081179091558190611c1f82611b8a565b6001600160a01b03167f8c5be1e5ebec7d5bd14f71427d1e84f3dd0314c0f7b2291e5b200ac8c7c3b92560405160405180910390a45050565b610f56813361232e565b6000828152600460205260409020546001600160a01b0316611cdd5760405162461bcd60e51b815260206004820152602e60248201527f45524337323155524953746f726167653a2055524920736574206f66206e6f6e60448201526d32bc34b9ba32b73a103a37b5b2b760911b60648201526084016108cf565b6000828152600c60209081526040909120825161097092840190612fac565b600080611d0883611b8a565b9050806001600160a01b0316846001600160a01b03161480611d4f57506001600160a01b0380821660009081526007602090815260408083209388168352929052205460ff165b80611d735750836001600160a01b0316611d6884610833565b6001600160a01b0316145b949350505050565b826001600160a01b0316611d8e82611b8a565b6001600160a01b031614611df25760405162461bcd60e51b815260206004820152602560248201527f4552433732313a207472616e736665722066726f6d20696e636f72726563742060448201526437bbb732b960d91b60648201526084016108cf565b6001600160a01b038216611e545760405162461bcd60e51b8152602060048201526024808201527f4552433732313a207472616e7366657220746f20746865207a65726f206164646044820152637265737360e01b60648201526084016108cf565b611e5f838383612392565b611e6a600082611bea565b6001600160a01b0383166000908152600560205260408120805460019290611e939084906138d6565b90915550506001600160a01b0382166000908152600560205260408120805460019290611ec19084906138ed565b909155505060008181526004602052604080822080546001600160a01b0319166001600160a01b0386811691821790925591518493918716917fddf252ad1be2c89b69c2b068fc378daa952ba7f163c4a11628f55a4df523b3ef91a4505050565b611f2c8282611a6b565b6000828152600e602052604090206109709082611af1565b611f4e828261249c565b6000828152600e602052604090206109709082612503565b610f5681612518565b610e79828260405180602001604052806000815250612558565b6127106001600160601b0382161115611ff75760405162461bcd60e51b815260206004820152602a60248201527f455243323938313a20726f79616c7479206665652077696c6c206578636565646044820152692073616c65507269636560b01b60648201526084016108cf565b6001600160a01b03821661204d5760405162461bcd60e51b815260206004820152601b60248201527f455243323938313a20496e76616c696420706172616d6574657273000000000060448201526064016108cf565b6040805180820182526001600160a01b0393841681526001600160601b0392831660208083019182526000968752600190529190942093519051909116600160a01b029116179055565b6060601180546107b09061361e565b6000611655838361258b565b816001600160a01b0316836001600160a01b031614156121145760405162461bcd60e51b815260206004820152601960248201527f4552433732313a20617070726f766520746f2063616c6c65720000000000000060448201526064016108cf565b6001600160a01b03838116600081815260076020908152604080832094871680845294825291829020805460ff191686151590811790915591519182527f17307eab39ab6107e8899845ad3d59bd9653f200f220920489ca2b5937696c31910160405180910390a3505050565b61218c848484611d7b565b612198848484846125b5565b61186f5760405162461bcd60e51b81526004016108cf90613905565b60606121bf82611b2b565b6000828152600c6020526040812080546121d89061361e565b80601f01602080910402602001604051908101604052809291908181526020018280546122049061361e565b80156122515780601f1061222657610100808354040283529160200191612251565b820191906000526020600020905b81548152906001019060200180831161223457829003601f168201915b505050505090506000612262612097565b9050805160001415612275575092915050565b8151156122a757808260405160200161228f929190613957565b60405160208183030381529060405292505050919050565b611d73846126c2565b600061079b825490565b60008181526001830160205260408120546123015750815460018181018455600084815260208082209093018490558454848252828601909352604090209190915561079b565b50600061079b565b60006001600160e01b03198216637965db0b60e01b148061079b575061079b82612728565b612338828261165c565b610e7957612350816001600160a01b03166014612733565b61235b836020612733565b60405160200161236c929190613986565b60408051601f198184030181529082905262461bcd60e51b82526108cf91600401613106565b6000818152601660205260409020546001600160a01b0316156123ea5760405162461bcd60e51b815260206004820152601060248201526f546f6b656e206973206c6f636b65642160801b60448201526064016108cf565b6001600160a01b0383161580159061240a57506001600160a01b03821615155b80156124285750816001600160a01b0316836001600160a01b031614155b156124915760008181526014602052604090205461244590610760565b6124915760405162461bcd60e51b815260206004820181905260248201527f546f6b656e20636c617373206973206e6f74207472616e7366657261626c652160448201526064016108cf565b6109708383836128cf565b6124a6828261165c565b15610e79576000828152600d602090815260408083206001600160a01b0385168085529252808320805460ff1916905551339285917ff6391f5c32d9c69d2a47ea670b442974b53935d1edc7fd64eb21e047a839171b9190a45050565b6000611655836001600160a01b038416612987565b61252181612a7a565b6000818152600c60205260409020805461253a9061361e565b159050610f56576000818152600c60205260408120610f5691613030565b6125628383612a94565b61256f60008484846125b5565b6109705760405162461bcd60e51b81526004016108cf90613905565b60008260000182815481106125a2576125a261376d565b9060005260206000200154905092915050565b60006001600160a01b0384163b156126b757604051630a85bd0160e11b81526001600160a01b0385169063150b7a02906125f99033908990889088906004016139fb565b602060405180830381600087803b15801561261357600080fd5b505af1925050508015612643575060408051601f3d908101601f1916820190925261264091810190613a2e565b60015b61269d573d808015612671576040519150601f19603f3d011682016040523d82523d6000602084013e612676565b606091505b5080516126955760405162461bcd60e51b81526004016108cf90613905565b805181602001fd5b6001600160e01b031916630a85bd0160e11b149050611d73565b506001949350505050565b60606126cd82611b2b565b60006126d7612097565b905060008151116126f75760405180602001604052806000815250611655565b8061270184612be2565b604051602001612712929190613957565b6040516020818303038152906040529392505050565b600061079b82612ce0565b60606000612742836002613724565b61274d9060026138ed565b67ffffffffffffffff81111561276557612765613178565b6040519080825280601f01601f19166020018201604052801561278f576020820181803683370190505b509050600360fc1b816000815181106127aa576127aa61376d565b60200101906001600160f81b031916908160001a905350600f60fb1b816001815181106127d9576127d961376d565b60200101906001600160f81b031916908160001a90535060006127fd846002613724565b6128089060016138ed565b90505b6001811115612880576f181899199a1a9b1b9c1cb0b131b232b360811b85600f166010811061283c5761283c61376d565b1a60f81b8282815181106128525761285261376d565b60200101906001600160f81b031916908160001a90535060049490941c9361287981613a4b565b905061280b565b5083156116555760405162461bcd60e51b815260206004820181905260248201527f537472696e67733a20686578206c656e67746820696e73756666696369656e7460448201526064016108cf565b6001600160a01b03831661292a5761292581600a80546000838152600b60205260408120829055600182018355919091527fc65a7bb8d6351c1cf70c95a316cc6a92839c986682d98bc35f958f4883f9d2a80155565b61294d565b816001600160a01b0316836001600160a01b03161461294d5761294d8382612d05565b6001600160a01b0382166129645761097081612da2565b826001600160a01b0316826001600160a01b031614610970576109708282612e51565b60008181526001830160205260408120548015612a705760006129ab6001836138d6565b85549091506000906129bf906001906138d6565b9050818114612a245760008660000182815481106129df576129df61376d565b9060005260206000200154905080876000018481548110612a0257612a0261376d565b6000918252602080832090910192909255918252600188019052604090208390555b8554869080612a3557612a35613a62565b60019003818190600052602060002001600090559055856001016000868152602001908152602001600020600090556001935050505061079b565b600091505061079b565b612a8381612e95565b600090815260016020526040812055565b6001600160a01b038216612aea5760405162461bcd60e51b815260206004820181905260248201527f4552433732313a206d696e7420746f20746865207a65726f206164647265737360448201526064016108cf565b6000818152600460205260409020546001600160a01b031615612b4f5760405162461bcd60e51b815260206004820152601c60248201527f4552433732313a20746f6b656e20616c7265616479206d696e7465640000000060448201526064016108cf565b612b5b60008383612392565b6001600160a01b0382166000908152600560205260408120805460019290612b849084906138ed565b909155505060008181526004602052604080822080546001600160a01b0319166001600160a01b03861690811790915590518392907fddf252ad1be2c89b69c2b068fc378daa952ba7f163c4a11628f55a4df523b3ef908290a45050565b606081612c065750506040805180820190915260018152600360fc1b602082015290565b8160005b8115612c305780612c1a81613783565b9150612c299050600a83613759565b9150612c0a565b60008167ffffffffffffffff811115612c4b57612c4b613178565b6040519080825280601f01601f191660200182016040528015612c75576020820181803683370190505b5090505b8415611d7357612c8a6001836138d6565b9150612c97600a86613a78565b612ca29060306138ed565b60f81b818381518110612cb757612cb761376d565b60200101906001600160f81b031916908160001a905350612cd9600a86613759565b9450612c79565b60006001600160e01b0319821663780e9d6360e01b148061079b575061079b82612f3c565b60006001612d1284611314565b612d1c91906138d6565b600083815260096020526040902054909150808214612d6f576001600160a01b03841660009081526008602090815260408083208584528252808320548484528184208190558352600990915290208190555b5060009182526009602090815260408084208490556001600160a01b039094168352600881528383209183525290812055565b600a54600090612db4906001906138d6565b6000838152600b6020526040812054600a8054939450909284908110612ddc57612ddc61376d565b9060005260206000200154905080600a8381548110612dfd57612dfd61376d565b6000918252602080832090910192909255828152600b9091526040808220849055858252812055600a805480612e3557612e35613a62565b6001900381819060005260206000200160009055905550505050565b6000612e5c83611314565b6001600160a01b039093166000908152600860209081526040808320868452825280832085905593825260099052919091209190915550565b6000612ea082611b8a565b9050612eae81600084612392565b612eb9600083611bea565b6001600160a01b0381166000908152600560205260408120805460019290612ee29084906138d6565b909155505060008281526004602052604080822080546001600160a01b0319169055518391906001600160a01b038416907fddf252ad1be2c89b69c2b068fc378daa952ba7f163c4a11628f55a4df523b3ef908390a45050565b60006001600160e01b031982166380ac58cd60e01b1480612f6d57506001600160e01b03198216635b5e139f60e01b145b8061079b575061079b8260006001600160e01b0319821663152a902d60e11b148061079b57506301ffc9a760e01b6001600160e01b031983161461079b565b828054612fb89061361e565b90600052602060002090601f016020900481019282612fda5760008555613020565b82601f10612ff357805160ff1916838001178555613020565b82800160010185558215613020579182015b82811115613020578251825591602001919060010190613005565b5061302c929150613066565b5090565b50805461303c9061361e565b6000825580601f1061304c575050565b601f016020900490600052602060002090810190610f5691905b5b8082111561302c5760008155600101613067565b6001600160e01b031981168114610f5657600080fd5b6000602082840312156130a357600080fd5b81356116558161307b565b60005b838110156130c95781810151838201526020016130b1565b8381111561186f5750506000910152565b600081518084526130f28160208601602086016130ae565b601f01601f19169290920160200192915050565b60208152600061165560208301846130da565b60006020828403121561312b57600080fd5b5035919050565b80356001600160a01b038116811461314957600080fd5b919050565b6000806040838503121561316157600080fd5b61316a83613132565b946020939093013593505050565b634e487b7160e01b600052604160045260246000fd5b604051601f8201601f1916810167ffffffffffffffff811182821017156131b7576131b7613178565b604052919050565b600082601f8301126131d057600080fd5b813567ffffffffffffffff8111156131ea576131ea613178565b6131fd601f8201601f191660200161318e565b81815284602083860101111561321257600080fd5b816020850160208301376000918101602001919091529392505050565b6000806040838503121561324257600080fd5b82359150602083013567ffffffffffffffff81111561326057600080fd5b61326c858286016131bf565b9150509250929050565b600080600080600060a0868803121561328e57600080fd5b61329786613132565b945060208601359350604086013592506132b360608701613132565b9150608086013567ffffffffffffffff8111156132cf57600080fd5b6132db888289016131bf565b9150509295509295909350565b6000806000606084860312156132fd57600080fd5b61330684613132565b925061331460208501613132565b9150604084013590509250925092565b6000806000806080858703121561333a57600080fd5b843593506020850135925061335160408601613132565b9150606085013567ffffffffffffffff81111561336d57600080fd5b613379878288016131bf565b91505092959194509250565b6000806040838503121561339857600080fd5b50508035926020909101359150565b600080604083850312156133ba57600080fd5b823591506133ca60208401613132565b90509250929050565b6000602082840312156133e557600080fd5b61165582613132565b80356001600160601b038116811461314957600080fd5b600080600080600060a0868803121561341d57600080fd5b61342686613132565b94506020613435818801613132565b945061344360408801613132565b9350606087013567ffffffffffffffff8082111561346057600080fd5b818901915089601f83011261347457600080fd5b81358181111561348657613486613178565b8060051b915061349784830161318e565b818152918301840191848101908c8411156134b157600080fd5b938501935b838510156134d6576134c785613132565b825293850193908501906134b6565b8097505050505050506134eb608087016133ee565b90509295509295909350565b60006020828403121561350957600080fd5b813567ffffffffffffffff81111561352057600080fd5b611d73848285016131bf565b60006020828403121561353e57600080fd5b611655826133ee565b8035801515811461314957600080fd5b6000806040838503121561356a57600080fd5b61357383613132565b91506133ca60208401613547565b6000806000806080858703121561359757600080fd5b6135a085613132565b93506135ae60208601613132565b925060408501359150606085013567ffffffffffffffff81111561336d57600080fd5b600080604083850312156135e457600080fd5b823591506133ca60208401613547565b6000806040838503121561360757600080fd5b61361083613132565b91506133ca60208401613132565b600181811c9082168061363257607f821691505b6020821081141561365357634e487b7160e01b600052602260045260246000fd5b50919050565b60018060a01b038516815283602082015282604082015260806060820152600061368660808301846130da565b9695505050505050565b6020808252602e908201527f4552433732313a2063616c6c6572206973206e6f7420746f6b656e206f776e6560408201526d1c881b9bdc88185c1c1c9bdd995960921b606082015260800190565b602080825260169082015275596f7520617265206e6f7420746865206f776e65722160501b604082015260600190565b634e487b7160e01b600052601160045260246000fd5b600081600019048311821515161561373e5761373e61370e565b500290565b634e487b7160e01b600052601260045260246000fd5b60008261376857613768613743565b500490565b634e487b7160e01b600052603260045260246000fd5b60006000198214156137975761379761370e565b5060010190565b60408152600080845481600182811c9150808316806137be57607f831692505b60208084108214156137de57634e487b7160e01b86526022600452602486fd5b60408801849052606088018280156137fd576001811461380e57613839565b60ff19871682528282019750613839565b60008c81526020902060005b878110156138335781548482015290860190840161381a565b83019850505b505087860381890152505050505061385181856130da565b95945050505050565b60208082526015908201527456616c756520697320616c7265616479207365742160581b604082015260600190565b6001600160e01b03198316815281516000906138ac8160048501602087016130ae565b919091016004019392505050565b600082516138cc8184602087016130ae565b9190910192915050565b6000828210156138e8576138e861370e565b500390565b600082198211156139005761390061370e565b500190565b60208082526032908201527f4552433732313a207472616e7366657220746f206e6f6e20455243373231526560408201527131b2b4bb32b91034b6b83632b6b2b73a32b960711b606082015260800190565b600083516139698184602088016130ae565b83519083019061397d8183602088016130ae565b01949350505050565b7f416363657373436f6e74726f6c3a206163636f756e74200000000000000000008152600083516139be8160178501602088016130ae565b7001034b99036b4b9b9b4b733903937b6329607d1b60179184019182015283516139ef8160288401602088016130ae565b01602801949350505050565b6001600160a01b0385811682528416602082015260408101839052608060608201819052600090613686908301846130da565b600060208284031215613a4057600080fd5b81516116558161307b565b600081613a5a57613a5a61370e565b506000190190565b634e487b7160e01b600052603160045260246000fd5b600082613a8757613a87613743565b50069056fe71f3d55856e4058ed06ee057d79ada615f65cdf5f9ee88181b914225088f834fa2646970667358221220939687bec7f57299bcf71132252646c207c2034b88da5c5d4cda71a3c59abaa664736f6c6343000809003368747470733a2f2f7777772e656c6466616c6c2e636f6d2f6368617261637465724d657461646174612f",
  "linkReferences": {},
  "deployedLinkReferences": {}
}