{
  "address": "0xb71d75C40B1121c0c37ea21A2ca7e57d43c1cba4",
  "abi": [
    {
      "inputs": [],
      "stateMutability": "nonpayable",
      "type": "constructor"
    },
    {
      "anonymous": false,
      "inputs": [
        {
          "indexed": true,
          "internalType": "address",
          "name": "owner",
          "type": "address"
        },
        {
          "indexed": true,
          "internalType": "address",
          "name": "approved",
          "type": "address"
        },
        {
          "indexed": true,
          "internalType": "uint256",
          "name": "tokenId",
          "type": "uint256"
        }
      ],
      "name": "Approval",
      "type": "event"
    },
    {
      "anonymous": false,
      "inputs": [
        {
          "indexed": true,
          "internalType": "address",
          "name": "owner",
          "type": "address"
        },
        {
          "indexed": true,
          "internalType": "address",
          "name": "operator",
          "type": "address"
        },
        {
          "indexed": false,
          "internalType": "bool",
          "name": "approved",
          "type": "bool"
        }
      ],
      "name": "ApprovalForAll",
      "type": "event"
    },
    {
      "anonymous": false,
      "inputs": [
        {
          "indexed": false,
          "internalType": "string",
          "name": "oldValue",
          "type": "string"
        },
        {
          "indexed": false,
          "internalType": "string",
          "name": "newValue",
          "type": "string"
        }
      ],
      "name": "BaseUriChanged",
      "type": "event"
    },
    {
      "anonymous": false,
      "inputs": [
        {
          "indexed": true,
          "internalType": "uint256",
          "name": "tokenId",
          "type": "uint256"
        },
        {
          "indexed": false,
          "internalType": "bytes32",
          "name": "characterClass",
          "type": "bytes32"
        }
      ],
      "name": "CharacterCreated",
      "type": "event"
    },
    {
      "anonymous": false,
      "inputs": [
        {
          "indexed": true,
          "internalType": "address",
          "name": "userAddress",
          "type": "address"
        },
        {
          "indexed": false,
          "internalType": "uint256",
          "name": "slotId",
          "type": "uint256"
        },
        {
          "indexed": true,
          "internalType": "uint256",
          "name": "characterId",
          "type": "uint256"
        },
        {
          "indexed": true,
          "internalType": "address",
          "name": "lockedAt",
          "type": "address"
        }
      ],
      "name": "CharacterLocked",
      "type": "event"
    },
    {
      "anonymous": false,
      "inputs": [
        {
          "indexed": false,
          "internalType": "bytes32",
          "name": "classHash",
          "type": "bytes32"
        },
        {
          "indexed": false,
          "internalType": "bool",
          "name": "oldValue",
          "type": "bool"
        },
        {
          "indexed": false,
          "internalType": "bool",
          "name": "newValue",
          "type": "bool"
        }
      ],
      "name": "CharacterNotTransferableChanged",
      "type": "event"
    },
    {
      "anonymous": false,
      "inputs": [
        {
          "indexed": true,
          "internalType": "address",
          "name": "userAddress",
          "type": "address"
        },
        {
          "indexed": false,
          "internalType": "uint256",
          "name": "slotId",
          "type": "uint256"
        },
        {
          "indexed": true,
          "internalType": "uint256",
          "name": "characterId",
          "type": "uint256"
        },
        {
          "indexed": true,
          "internalType": "address",
          "name": "unlockedAt",
          "type": "address"
        }
      ],
      "name": "CharacterUnlocked",
      "type": "event"
    },
    {
      "anonymous": false,
      "inputs": [
        {
          "indexed": true,
          "internalType": "bytes32",
          "name": "role",
          "type": "bytes32"
        },
        {
          "indexed": true,
          "internalType": "bytes32",
          "name": "previousAdminRole",
          "type": "bytes32"
        },
        {
          "indexed": true,
          "internalType": "bytes32",
          "name": "newAdminRole",
          "type": "bytes32"
        }
      ],
      "name": "RoleAdminChanged",
      "type": "event"
    },
    {
      "anonymous": false,
      "inputs": [
        {
          "indexed": true,
          "internalType": "bytes32",
          "name": "role",
          "type": "bytes32"
        },
        {
          "indexed": true,
          "internalType": "address",
          "name": "account",
          "type": "address"
        },
        {
          "indexed": true,
          "internalType": "address",
          "name": "sender",
          "type": "address"
        }
      ],
      "name": "RoleGranted",
      "type": "event"
    },
    {
      "anonymous": false,
      "inputs": [
        {
          "indexed": true,
          "internalType": "bytes32",
          "name": "role",
          "type": "bytes32"
        },
        {
          "indexed": true,
          "internalType": "address",
          "name": "account",
          "type": "address"
        },
        {
          "indexed": true,
          "internalType": "address",
          "name": "sender",
          "type": "address"
        }
      ],
      "name": "RoleRevoked",
      "type": "event"
    },
    {
      "anonymous": false,
      "inputs": [
        {
          "indexed": false,
          "internalType": "uint96",
          "name": "oldValue",
          "type": "uint96"
        },
        {
          "indexed": false,
          "internalType": "uint96",
          "name": "newValue",
          "type": "uint96"
        }
      ],
      "name": "RoyaltyNumeratorChanged",
      "type": "event"
    },
    {
      "anonymous": false,
      "inputs": [
        {
          "indexed": true,
          "internalType": "address",
          "name": "tokenAddress",
          "type": "address"
        },
        {
          "indexed": true,
          "internalType": "address",
          "name": "userAddress",
          "type": "address"
        },
        {
          "indexed": false,
          "internalType": "uint256",
          "name": "amount",
          "type": "uint256"
        }
      ],
      "name": "TokensSalvaged",
      "type": "event"
    },
    {
      "anonymous": false,
      "inputs": [
        {
          "indexed": true,
          "internalType": "address",
          "name": "from",
          "type": "address"
        },
        {
          "indexed": true,
          "internalType": "address",
          "name": "to",
          "type": "address"
        },
        {
          "indexed": true,
          "internalType": "uint256",
          "name": "tokenId",
          "type": "uint256"
        }
      ],
      "name": "Transfer",
      "type": "event"
    },
    {
      "anonymous": false,
      "inputs": [
        {
          "indexed": false,
          "internalType": "address",
          "name": "oldValue",
          "type": "address"
        },
        {
          "indexed": false,
          "internalType": "address",
          "name": "newValue",
          "type": "address"
        }
      ],
      "name": "VaultAddressChanged",
      "type": "event"
    },
    {
      "anonymous": false,
      "inputs": [
        {
          "indexed": true,
          "internalType": "address",
          "name": "guildAddress",
          "type": "address"
        },
        {
          "indexed": false,
          "internalType": "bool",
          "name": "oldValue",
          "type": "bool"
        },
        {
          "indexed": false,
          "internalType": "bool",
          "name": "newValue",
          "type": "bool"
        }
      ],
      "name": "WhitelistGuildChanged",
      "type": "event"
    },
    {
      "inputs": [],
      "name": "DEFAULT_ADMIN_ROLE",
      "outputs": [
        {
          "internalType": "bytes32",
          "name": "",
          "type": "bytes32"
        }
      ],
      "stateMutability": "view",
      "type": "function"
    },
    {
      "inputs": [],
      "name": "MINTER_ROLE",
      "outputs": [
        {
          "internalType": "bytes32",
          "name": "",
          "type": "bytes32"
        }
      ],
      "stateMutability": "view",
      "type": "function"
    },
    {
      "inputs": [],
      "name": "MODERATOR_ROLE",
      "outputs": [
        {
          "internalType": "bytes32",
          "name": "",
          "type": "bytes32"
        }
      ],
      "stateMutability": "view",
      "type": "function"
    },
    {
      "inputs": [
        {
          "internalType": "address",
          "name": "to",
          "type": "address"
        },
        {
          "internalType": "uint256",
          "name": "tokenId",
          "type": "uint256"
        }
      ],
      "name": "approve",
      "outputs": [],
      "stateMutability": "nonpayable",
      "type": "function"
    },
    {
      "inputs": [
        {
          "internalType": "address",
          "name": "owner",
          "type": "address"
        }
      ],
      "name": "balanceOf",
      "outputs": [
        {
          "internalType": "uint256",
          "name": "",
          "type": "uint256"
        }
      ],
      "stateMutability": "view",
      "type": "function"
    },
    {
      "inputs": [
        {
          "internalType": "uint256",
          "name": "characterId_",
          "type": "uint256"
        }
      ],
      "name": "burn",
      "outputs": [],
      "stateMutability": "nonpayable",
      "type": "function"
    },
    {
      "inputs": [
        {
          "internalType": "address",
          "name": "userAddress_",
          "type": "address"
        },
        {
          "internalType": "uint256",
          "name": "slotId_",
          "type": "uint256"
        },
        {
          "internalType": "uint256",
          "name": "characterId_",
          "type": "uint256"
        },
        {
          "internalType": "address",
          "name": "guildAddress_",
          "type": "address"
        },
        {
          "internalType": "bytes",
          "name": "extraData_",
          "type": "bytes"
        }
      ],
      "name": "externalUnlockCharacter",
      "outputs": [],
      "stateMutability": "nonpayable",
      "type": "function"
    },
    {
      "inputs": [
        {
          "internalType": "uint256",
          "name": "tokenId",
          "type": "uint256"
        }
      ],
      "name": "getApproved",
      "outputs": [
        {
          "internalType": "address",
          "name": "",
          "type": "address"
        }
      ],
      "stateMutability": "view",
      "type": "function"
    },
    {
      "inputs": [],
      "name": "getBaseURI",
      "outputs": [
        {
          "internalType": "string",
          "name": "",
          "type": "string"
        }
      ],
      "stateMutability": "view",
      "type": "function"
    },
    {
      "inputs": [
        {
          "internalType": "uint256",
          "name": "tokenId_",
          "type": "uint256"
        }
      ],
      "name": "getCharacterLockedAt",
      "outputs": [
        {
          "internalType": "address",
          "name": "",
          "type": "address"
        }
      ],
      "stateMutability": "view",
      "type": "function"
    },
    {
      "inputs": [
        {
          "internalType": "uint256",
          "name": "tokenId_",
          "type": "uint256"
        }
      ],
      "name": "getCharactersClass",
      "outputs": [
        {
          "internalType": "bytes32",
          "name": "",
          "type": "bytes32"
        }
      ],
      "stateMutability": "view",
      "type": "function"
    },
    {
      "inputs": [
        {
          "internalType": "bytes32",
          "name": "role",
          "type": "bytes32"
        }
      ],
      "name": "getRoleAdmin",
      "outputs": [
        {
          "internalType": "bytes32",
          "name": "",
          "type": "bytes32"
        }
      ],
      "stateMutability": "view",
      "type": "function"
    },
    {
      "inputs": [
        {
          "internalType": "bytes32",
          "name": "role",
          "type": "bytes32"
        },
        {
          "internalType": "uint256",
          "name": "index",
          "type": "uint256"
        }
      ],
      "name": "getRoleMember",
      "outputs": [
        {
          "internalType": "address",
          "name": "",
          "type": "address"
        }
      ],
      "stateMutability": "view",
      "type": "function"
    },
    {
      "inputs": [
        {
          "internalType": "bytes32",
          "name": "role",
          "type": "bytes32"
        }
      ],
      "name": "getRoleMemberCount",
      "outputs": [
        {
          "internalType": "uint256",
          "name": "",
          "type": "uint256"
        }
      ],
      "stateMutability": "view",
      "type": "function"
    },
    {
      "inputs": [],
      "name": "getRoyaltyNumerator",
      "outputs": [
        {
          "internalType": "uint96",
          "name": "",
          "type": "uint96"
        }
      ],
      "stateMutability": "view",
      "type": "function"
    },
    {
      "inputs": [],
      "name": "getVaultAddress",
      "outputs": [
        {
          "internalType": "address",
          "name": "",
          "type": "address"
        }
      ],
      "stateMutability": "view",
      "type": "function"
    },
    {
      "inputs": [
        {
          "internalType": "bytes32",
          "name": "role",
          "type": "bytes32"
        },
        {
          "internalType": "address",
          "name": "account",
          "type": "address"
        }
      ],
      "name": "grantRole",
      "outputs": [],
      "stateMutability": "nonpayable",
      "type": "function"
    },
    {
      "inputs": [
        {
          "internalType": "bytes32",
          "name": "role",
          "type": "bytes32"
        },
        {
          "internalType": "address",
          "name": "account",
          "type": "address"
        }
      ],
      "name": "hasRole",
      "outputs": [
        {
          "internalType": "bool",
          "name": "",
          "type": "bool"
        }
      ],
      "stateMutability": "view",
      "type": "function"
    },
    {
      "inputs": [
        {
          "internalType": "address",
          "name": "defaultAdminAddress_",
          "type": "address"
        },
        {
          "internalType": "address",
          "name": "moderatorAddress_",
          "type": "address"
        },
        {
          "internalType": "address",
          "name": "vaultAddress_",
          "type": "address"
        },
        {
          "internalType": "address[]",
          "name": "minterAddressArray_",
          "type": "address[]"
        },
        {
          "internalType": "uint96",
          "name": "royaltyNumerator_",
          "type": "uint96"
        }
      ],
      "name": "init",
      "outputs": [],
      "stateMutability": "nonpayable",
      "type": "function"
    },
    {
      "inputs": [
        {
          "internalType": "address",
          "name": "owner",
          "type": "address"
        },
        {
          "internalType": "address",
          "name": "operator",
          "type": "address"
        }
      ],
      "name": "isApprovedForAll",
      "outputs": [
        {
          "internalType": "bool",
          "name": "",
          "type": "bool"
        }
      ],
      "stateMutability": "view",
      "type": "function"
    },
    {
      "inputs": [
        {
          "internalType": "uint256",
          "name": "tokenId_",
          "type": "uint256"
        }
      ],
      "name": "isCharacterLocked",
      "outputs": [
        {
          "internalType": "bool",
          "name": "",
          "type": "bool"
        }
      ],
      "stateMutability": "view",
      "type": "function"
    },
    {
      "inputs": [
        {
          "internalType": "address",
          "name": "guildAddress_",
          "type": "address"
        }
      ],
      "name": "isGuildWhitelisted",
      "outputs": [
        {
          "internalType": "bool",
          "name": "",
          "type": "bool"
        }
      ],
      "stateMutability": "view",
      "type": "function"
    },
    {
      "inputs": [],
      "name": "isInitialised",
      "outputs": [
        {
          "internalType": "bool",
          "name": "",
          "type": "bool"
        }
      ],
      "stateMutability": "view",
      "type": "function"
    },
    {
      "inputs": [
        {
          "internalType": "bytes32",
          "name": "classHash",
          "type": "bytes32"
        }
      ],
      "name": "isTransferable",
      "outputs": [
        {
          "internalType": "bool",
          "name": "",
          "type": "bool"
        }
      ],
      "stateMutability": "view",
      "type": "function"
    },
    {
      "inputs": [
        {
          "internalType": "uint256",
          "name": "slotId_",
          "type": "uint256"
        },
        {
          "internalType": "uint256",
          "name": "characterId_",
          "type": "uint256"
        },
        {
          "internalType": "address",
          "name": "guildAddress_",
          "type": "address"
        },
        {
          "internalType": "bytes",
          "name": "extraData_",
          "type": "bytes"
        }
      ],
      "name": "lockCharacter",
      "outputs": [],
      "stateMutability": "nonpayable",
      "type": "function"
    },
    {
      "inputs": [],
      "name": "name",
      "outputs": [
        {
          "internalType": "string",
          "name": "",
          "type": "string"
        }
      ],
      "stateMutability": "view",
      "type": "function"
    },
    {
      "inputs": [],
      "name": "owner",
      "outputs": [
        {
          "internalType": "address",
          "name": "",
          "type": "address"
        }
      ],
      "stateMutability": "view",
      "type": "function"
    },
    {
      "inputs": [
        {
          "internalType": "uint256",
          "name": "tokenId",
          "type": "uint256"
        }
      ],
      "name": "ownerOf",
      "outputs": [
        {
          "internalType": "address",
          "name": "",
          "type": "address"
        }
      ],
      "stateMutability": "view",
      "type": "function"
    },
    {
      "inputs": [
        {
          "internalType": "bytes32",
          "name": "role",
          "type": "bytes32"
        },
        {
          "internalType": "address",
          "name": "account",
          "type": "address"
        }
      ],
      "name": "renounceRole",
      "outputs": [],
      "stateMutability": "nonpayable",
      "type": "function"
    },
    {
      "inputs": [
        {
          "internalType": "bytes32",
          "name": "role",
          "type": "bytes32"
        },
        {
          "internalType": "address",
          "name": "account",
          "type": "address"
        }
      ],
      "name": "revokeRole",
      "outputs": [],
      "stateMutability": "nonpayable",
      "type": "function"
    },
    {
      "inputs": [
        {
          "internalType": "uint256",
          "name": "_tokenId",
          "type": "uint256"
        },
        {
          "internalType": "uint256",
          "name": "_salePrice",
          "type": "uint256"
        }
      ],
      "name": "royaltyInfo",
      "outputs": [
        {
          "internalType": "address",
          "name": "",
          "type": "address"
        },
        {
          "internalType": "uint256",
          "name": "",
          "type": "uint256"
        }
      ],
      "stateMutability": "view",
      "type": "function"
    },
    {
      "inputs": [
        {
          "internalType": "address",
          "name": "to_",
          "type": "address"
        },
        {
          "internalType": "bytes32",
          "name": "classHash_",
          "type": "bytes32"
        }
      ],
      "name": "safeMint",
      "outputs": [
        {
          "internalType": "uint256",
          "name": "",
          "type": "uint256"
        }
      ],
      "stateMutability": "nonpayable",
      "type": "function"
    },
    {
      "inputs": [
        {
          "internalType": "address",
          "name": "from",
          "type": "address"
        },
        {
          "internalType": "address",
          "name": "to",
          "type": "address"
        },
        {
          "internalType": "uint256",
          "name": "tokenId",
          "type": "uint256"
        }
      ],
      "name": "safeTransferFrom",
      "outputs": [],
      "stateMutability": "nonpayable",
      "type": "function"
    },
    {
      "inputs": [
        {
          "internalType": "address",
          "name": "from",
          "type": "address"
        },
        {
          "internalType": "address",
          "name": "to",
          "type": "address"
        },
        {
          "internalType": "uint256",
          "name": "tokenId",
          "type": "uint256"
        },
        {
          "internalType": "bytes",
          "name": "data",
          "type": "bytes"
        }
      ],
      "name": "safeTransferFrom",
      "outputs": [],
      "stateMutability": "nonpayable",
      "type": "function"
    },
    {
      "inputs": [
        {
          "internalType": "address",
          "name": "tokenAddress_",
          "type": "address"
        },
        {
          "internalType": "address",
          "name": "to_",
          "type": "address"
        },
        {
          "internalType": "uint256",
          "name": "amount_",
          "type": "uint256"
        }
      ],
      "name": "salvageTokensFromContract",
      "outputs": [],
      "stateMutability": "nonpayable",
      "type": "function"
    },
    {
      "inputs": [
        {
          "internalType": "address",
          "name": "operator",
          "type": "address"
        },
        {
          "internalType": "bool",
          "name": "approved",
          "type": "bool"
        }
      ],
      "name": "setApprovalForAll",
      "outputs": [],
      "stateMutability": "nonpayable",
      "type": "function"
    },
    {
      "inputs": [
        {
          "internalType": "string",
          "name": "baseUri_",
          "type": "string"
        }
      ],
      "name": "setBaseURI",
      "outputs": [],
      "stateMutability": "nonpayable",
      "type": "function"
    },
    {
      "inputs": [
        {
          "internalType": "bytes32",
          "name": "classHash",
          "type": "bytes32"
        },
        {
          "internalType": "bool",
          "name": "nonTransferable_",
          "type": "bool"
        }
      ],
      "name": "setNotTransferable",
      "outputs": [],
      "stateMutability": "nonpayable",
      "type": "function"
    },
    {
      "inputs": [
        {
          "internalType": "uint96",
          "name": "royaltyNumerator_",
          "type": "uint96"
        }
      ],
      "name": "setRoyaltyNumerator",
      "outputs": [],
      "stateMutability": "nonpayable",
      "type": "function"
    },
    {
      "inputs": [
        {
          "internalType": "uint256",
          "name": "tokenId_",
          "type": "uint256"
        },
        {
          "internalType": "string",
          "name": "tokenUri_",
          "type": "string"
        }
      ],
      "name": "setTokenURI",
      "outputs": [],
      "stateMutability": "nonpayable",
      "type": "function"
    },
    {
      "inputs": [
        {
          "internalType": "address",
          "name": "vaultAddress_",
          "type": "address"
        }
      ],
      "name": "setVaultAddress",
      "outputs": [],
      "stateMutability": "nonpayable",
      "type": "function"
    },
    {
      "inputs": [
        {
          "internalType": "address",
          "name": "guildAddress_",
          "type": "address"
        },
        {
          "internalType": "bool",
          "name": "isWhitelisted_",
          "type": "bool"
        }
      ],
      "name": "setWhitelistGuild",
      "outputs": [],
      "stateMutability": "nonpayable",
      "type": "function"
    },
    {
      "inputs": [
        {
          "internalType": "bytes4",
          "name": "interfaceId",
          "type": "bytes4"
        }
      ],
      "name": "supportsInterface",
      "outputs": [
        {
          "internalType": "bool",
          "name": "",
          "type": "bool"
        }
      ],
      "stateMutability": "view",
      "type": "function"
    },
    {
      "inputs": [],
      "name": "symbol",
      "outputs": [
        {
          "internalType": "string",
          "name": "",
          "type": "string"
        }
      ],
      "stateMutability": "view",
      "type": "function"
    },
    {
      "inputs": [
        {
          "internalType": "uint256",
          "name": "index",
          "type": "uint256"
        }
      ],
      "name": "tokenByIndex",
      "outputs": [
        {
          "internalType": "uint256",
          "name": "",
          "type": "uint256"
        }
      ],
      "stateMutability": "view",
      "type": "function"
    },
    {
      "inputs": [
        {
          "internalType": "address",
          "name": "owner",
          "type": "address"
        },
        {
          "internalType": "uint256",
          "name": "index",
          "type": "uint256"
        }
      ],
      "name": "tokenOfOwnerByIndex",
      "outputs": [
        {
          "internalType": "uint256",
          "name": "",
          "type": "uint256"
        }
      ],
      "stateMutability": "view",
      "type": "function"
    },
    {
      "inputs": [
        {
          "internalType": "uint256",
          "name": "tokenId",
          "type": "uint256"
        }
      ],
      "name": "tokenURI",
      "outputs": [
        {
          "internalType": "string",
          "name": "",
          "type": "string"
        }
      ],
      "stateMutability": "view",
      "type": "function"
    },
    {
      "inputs": [],
      "name": "totalSupply",
      "outputs": [
        {
          "internalType": "uint256",
          "name": "",
          "type": "uint256"
        }
      ],
      "stateMutability": "view",
      "type": "function"
    },
    {
      "inputs": [
        {
          "internalType": "address",
          "name": "from",
          "type": "address"
        },
        {
          "internalType": "address",
          "name": "to",
          "type": "address"
        },
        {
          "internalType": "uint256",
          "name": "tokenId",
          "type": "uint256"
        }
      ],
      "name": "transferFrom",
      "outputs": [],
      "stateMutability": "nonpayable",
      "type": "function"
    },
    {
      "inputs": [
        {
          "internalType": "uint256",
          "name": "slotId_",
          "type": "uint256"
        },
        {
          "internalType": "uint256",
          "name": "characterId_",
          "type": "uint256"
        },
        {
          "internalType": "address",
          "name": "guildAddress_",
          "type": "address"
        },
        {
          "internalType": "bytes",
          "name": "extraData_",
          "type": "bytes"
        }
      ],
      "name": "unlockCharacter",
      "outputs": [],
      "stateMutability": "nonpayable",
      "type": "function"
    }
  ],
  "transactionHash": "0xdd1ec33e8f5c67bd63720a03ed877b48c2cda98c2e2c048550acbc5a40212132",
  "args": [],
  "numDeployments": 1,
  "solcInputHash": "fba827afb066dd5cb970aae214fdcccf",
  "bytecode": "0x60806040523480156200001157600080fd5b50604080518082018252601381527f456c6466616c6c4368617261637465724e66740000000000000000000000000060208083019182528351808501909452600384526222a1a760e91b90840152815191929162000072916002916200022b565b508051620000889060039060208401906200022b565b506200009a91506000905033620000d1565b6040518060600160405280602a815260200162003f34602a91398051620000ca916011916020909101906200022b565b506200030e565b620000e882826200011460201b62001a6b1760201c565b6000828152600e602090815260409091206200010f91839062001af1620001b9821b17901c565b505050565b6000828152600d602090815260408083206001600160a01b038516845290915290205460ff16620001b5576000828152600d602090815260408083206001600160a01b03851684529091529020805460ff19166001179055620001743390565b6001600160a01b0316816001600160a01b0316837f2f8788117e7eff1d82e926ec794901d17c78024a50270940304540a733656f0d60405160405180910390a45b5050565b6000620001d0836001600160a01b038416620001d9565b90505b92915050565b60008181526001830160205260408120546200022257508154600181810184556000848152602080822090930184905584548482528286019093526040902091909155620001d3565b506000620001d3565b8280546200023990620002d1565b90600052602060002090601f0160209004810192826200025d5760008555620002a8565b82601f106200027857805160ff1916838001178555620002a8565b82800160010185558215620002a8579182015b82811115620002a85782518255916020019190600101906200028b565b50620002b6929150620002ba565b5090565b5b80821115620002b65760008155600101620002bb565b600181811c90821680620002e657607f821691505b602082108114156200030857634e487b7160e01b600052602260045260246000fd5b50919050565b613c16806200031e6000396000f3fe608060405234801561001057600080fd5b50600436106102d65760003560e01c806365cacaa411610182578063a0929cda116100e9578063ca15c873116100a2578063d547741f1161007c578063d547741f146106f0578063e3da941714610703578063e985e9c514610716578063f306c40e1461075257600080fd5b8063ca15c873146106a3578063d4873baf146106b6578063d5391393146106c957600080fd5b8063a0929cda1461062f578063a217fddf14610642578063a22cb4651461064a578063af6c20f51461065d578063b88d4fde1461067d578063c87b56dd1461069057600080fd5b806385535cc51161013b57806385535cc5146105db5780638da5cb5b146105ee5780639010d07c146105f657806391d148541461060957806395d89b411461061c5780639ed3c90c1461062457600080fd5b806365cacaa41461057457806367d51cc41461058557806370a0823114610598578063714c5398146105ab578063721f661b146105b3578063797669c9146105c657600080fd5b80632f2ff15d1161024157806346255a45116101fa5780634f6ccce7116101d45780634f6ccce71461052857806355f804b31461053b57806360f8965d1461054e5780636352211e1461056157600080fd5b806346255a45146104bf5780634b7c9796146104d25780634f2ff7ae146104fd57600080fd5b80632f2ff15d146104345780632f745c591461044757806336568abe1461045a5780633fe76ddf1461046d57806342842e0e1461049957806342966c68146104ac57600080fd5b8063194874cc11610293578063194874cc1461037d57806323b872dd1461039057806324106ee9146103a3578063248a9ca3146103b6578063269b53ee146103d95780632a55205a1461040257600080fd5b806301ffc9a7146102db57806306fdde0314610303578063081812fc14610318578063095ea7b314610343578063162094c41461035857806318160ddd1461036b575b600080fd5b6102ee6102e936600461319d565b610776565b60405190151581526020015b60405180910390f35b61030b6107a1565b6040516102fa9190613212565b61032b610326366004613225565b610833565b6040516001600160a01b0390911681526020016102fa565b61035661035136600461325a565b61085a565b005b61035661036636600461333b565b610975565b600a545b6040519081526020016102fa565b61035661038b366004613382565b610997565b61035661039e3660046133f4565b610a83565b6103566103b1366004613430565b610ab4565b61036f6103c4366004613225565b6000908152600d602052604090206001015490565b61032b6103e7366004613225565b6000908152601660205260409020546001600160a01b031690565b610415610410366004613491565b610c98565b604080516001600160a01b0390931683526020830191909152016102fa565b6103566104423660046134b3565b610d44565b61036f61045536600461325a565b610d69565b6103566104683660046134b3565b610dff565b6102ee61047b3660046134df565b6001600160a01b031660009081526013602052604090205460ff1690565b6103566104a73660046133f4565b610e7d565b6103566104ba366004613225565b610e98565b6103566104cd366004613511565b610f59565b6102ee6104e0366004613225565b6000908152601660205260409020546001600160a01b0316151590565b601054600160a01b90046001600160601b03166040516001600160601b0390911681526020016102fa565b61036f610536366004613225565b611080565b610356610549366004613603565b611113565b61035661055c366004613638565b611178565b61032b61056f366004613225565b61123c565b6010546001600160a01b031661032b565b61036f61059336600461325a565b611247565b61036f6105a63660046134df565b611314565b61030b61139a565b6103566105c1366004613430565b6113a9565b61036f600080516020613bc183398151915281565b6103566105e93660046134df565b611576565b61032b611626565b61032b610604366004613491565b61163d565b6102ee6106173660046134b3565b61165c565b61030b611687565b60125460ff166102ee565b61035661063d3660046133f4565b611696565b61036f600081565b610356610658366004613663565b611832565b61036f61066b366004613225565b60009081526014602052604090205490565b61035661068b36600461368d565b61183d565b61030b61069e366004613225565b611875565b61036f6106b1366004613225565b611880565b6103566106c4366004613663565b611897565b61036f7f9f2df0fed2c77648de5860a4cc508cd0818c85b8b8a1ab4ceeef8d981c8956a681565b6103566106fe3660046134b3565b611977565b6103566107113660046136dd565b61199c565b6102ee610724366004613700565b6001600160a01b03918216600090815260076020908152604080832093909416825291909152205460ff1690565b6102ee610760366004613225565b60009081526015602052604090205460ff161590565b60006001600160e01b03198216637f2332c760e11b148061079b575061079b82611b06565b92915050565b6060600280546107b09061372a565b80601f01602080910402602001604051908101604052809291908181526020018280546107dc9061372a565b80156108295780601f106107fe57610100808354040283529160200191610829565b820191906000526020600020905b81548152906001019060200180831161080c57829003601f168201915b5050505050905090565b600061083e82611b2b565b506000908152600660205260409020546001600160a01b031690565b600061086582611b8a565b9050806001600160a01b0316836001600160a01b031614156108d85760405162461bcd60e51b815260206004820152602160248201527f4552433732313a20617070726f76616c20746f2063757272656e74206f776e656044820152603960f91b60648201526084015b60405180910390fd5b336001600160a01b03821614806108f457506108f48133610724565b6109665760405162461bcd60e51b815260206004820152603d60248201527f4552433732313a20617070726f76652063616c6c6572206973206e6f7420746f60448201527f6b656e206f776e6572206f7220617070726f76656420666f7220616c6c00000060648201526084016108cf565b6109708383611bea565b505050565b600080516020613bc183398151915261098d81611c58565b6109708383611c62565b600080516020613bc18339815191526109af81611c58565b60405163793aa72760e11b81526001600160a01b0384169063f2754e4e906109e1903390899089908890600401613765565b600060405180830381600087803b1580156109fb57600080fd5b505af1158015610a0f573d6000803e3d6000fd5b5050506000858152601660205260409081902080546001600160a01b0319169055516001600160a01b0385811692508691908916907f722ec5cd2fd8a1b24dd0b01675242b594f258def50dc633e8b8b31b7e5c59ece90610a73908a815260200190565b60405180910390a4505050505050565b610a8d3382611cfc565b610aa95760405162461bcd60e51b81526004016108cf9061379c565b610970838383611d7b565b610abd8361123c565b6001600160a01b0316336001600160a01b031614610aed5760405162461bcd60e51b81526004016108cf906137e9565b6001600160a01b03821660009081526013602052604090205460ff16610b515760405162461bcd60e51b81526020600482015260196024820152784775696c64206973206e6f742077686974656c69737465642160381b60448201526064016108cf565b6000838152601660205260409020546001600160a01b03838116911614610bc45760405162461bcd60e51b815260206004820152602160248201527f436861726163746572206973206e6f74206c6f636b656420696e206775696c646044820152602160f81b60648201526084016108cf565b60405163793aa72760e11b81526001600160a01b0383169063f2754e4e90610bf6903390889088908790600401613765565b600060405180830381600087803b158015610c1057600080fd5b505af1158015610c24573d6000803e3d6000fd5b505050600084815260166020526040902080546001600160a01b0319169055506001600160a01b03821683336001600160a01b03167f722ec5cd2fd8a1b24dd0b01675242b594f258def50dc633e8b8b31b7e5c59ece87604051610c8a91815260200190565b60405180910390a450505050565b60008281526001602090815260408083208151808301909252546001600160a01b038116808352600160a01b9091046001600160601b0316928201929092528291610d0d5750604080518082019091526000546001600160a01b0381168252600160a01b90046001600160601b031660208201525b602081015160009061271090610d2c906001600160601b03168761382f565b610d36919061384e565b915196919550909350505050565b6000828152600d6020526040902060010154610d5f81611c58565b6109708383611eec565b6000610d7483611314565b8210610dd65760405162461bcd60e51b815260206004820152602b60248201527f455243373231456e756d657261626c653a206f776e657220696e646578206f7560448201526a74206f6620626f756e647360a81b60648201526084016108cf565b506001600160a01b03919091166000908152600860209081526040808320938352929052205490565b6001600160a01b0381163314610e6f5760405162461bcd60e51b815260206004820152602f60248201527f416363657373436f6e74726f6c3a2063616e206f6e6c792072656e6f756e636560448201526e103937b632b9903337b91039b2b63360891b60648201526084016108cf565b610e798282611f0e565b5050565b6109708383836040518060200160405280600081525061183d565b6000818152601660205260409020546001600160a01b0316610ef257610ebd8161123c565b6001600160a01b0316336001600160a01b031614610eed5760405162461bcd60e51b81526004016108cf906137e9565b610f31565b6000818152601660205260409020546001600160a01b0316336001600160a01b031614610f315760405162461bcd60e51b81526004016108cf906137e9565b600081815260166020526040902080546001600160a01b0319169055610f5681611f30565b50565b6000610f6481611c58565b60125460ff1615610fb75760405162461bcd60e51b815260206004820181905260248201527f436f6e747261637420697320616c726561647920696e697469616c697365642160448201526064016108cf565b610fc2600087611eec565b610fda600080516020613bc183398151915286611eec565b60005b835181101561103b576110297f9f2df0fed2c77648de5860a4cc508cd0818c85b8b8a1ab4ceeef8d981c8956a685838151811061101c5761101c613870565b6020026020010151611eec565b8061103381613886565b915050610fdd565b506001600160601b038216600160a01b026001600160a01b038516176010556012805460ff1916600117905561107860006110733390565b611f0e565b505050505050565b600061108b600a5490565b82106110ee5760405162461bcd60e51b815260206004820152602c60248201527f455243373231456e756d657261626c653a20676c6f62616c20696e646578206f60448201526b7574206f6620626f756e647360a01b60648201526084016108cf565b600a828154811061110157611101613870565b90600052602060002001549050919050565b600080516020613bc183398151915261112b81611c58565b7f0dd4fd340cbf455a258b248b013540f5d7d6428fcd5418c9fb1261af655c42fb60118360405161115d9291906138a1565b60405180910390a181516109709060119060208501906130b8565b600080516020613bc183398151915261119081611c58565b6010546001600160601b03838116600160a01b9092041614156111c55760405162461bcd60e51b81526004016108cf9061395d565b601054604080516001600160601b03600160a01b9093048316815291841660208301527fb9948cc533bb960aa108e9618052d0f81f0931aa07cb453149e3832990eee652910160405180910390a150601080546001600160601b03909216600160a01b026001600160a01b03909216919091179055565b600061079b82611b8a565b60007f9f2df0fed2c77648de5860a4cc508cd0818c85b8b8a1ab4ceeef8d981c8956a661127381611c58565b600061127e600f5490565b905061128e600f80546001019055565b6112988582611f39565b60008181526014602052604090208490556010546112d29082906001600160a01b03811690600160a01b90046001600160601b0316611f53565b807f2fcfc1fc201e3f3e0fc349601038f0e505659cabdf93734ccaa010fd1bb572b68560405161130491815260200190565b60405180910390a2949350505050565b60006001600160a01b03821661137e5760405162461bcd60e51b815260206004820152602960248201527f4552433732313a2061646472657373207a65726f206973206e6f7420612076616044820152683634b21037bbb732b960b91b60648201526084016108cf565b506001600160a01b031660009081526005602052604090205490565b60606113a4612061565b905090565b6113b28361123c565b6001600160a01b0316336001600160a01b0316146113e25760405162461bcd60e51b81526004016108cf906137e9565b6001600160a01b03821660009081526013602052604090205460ff166114465760405162461bcd60e51b81526020600482015260196024820152784775696c64206973206e6f742077686974656c69737465642160381b60448201526064016108cf565b6000838152601660205260409020546001600160a01b0316156114ab5760405162461bcd60e51b815260206004820152601c60248201527f43686172616374657220697320616c7265616479206c6f636b6564210000000060448201526064016108cf565b60405163d1141a4960e01b81526001600160a01b0383169063d1141a49906114dd903390889088908790600401613765565b600060405180830381600087803b1580156114f757600080fd5b505af115801561150b573d6000803e3d6000fd5b505050600084815260166020526040902080546001600160a01b0319166001600160a01b038516908117909155905083336001600160a01b03167f3a64521d04c9f66f2cfc9e7cf3a9bd0f5e80b934ab3074a1713b2e10e429ce6387604051610c8a91815260200190565b600080516020613bc183398151915261158e81611c58565b6010546001600160a01b03838116911614156115bc5760405162461bcd60e51b81526004016108cf9061395d565b601054604080516001600160a01b03928316815291841660208301527fa4f45a63389e7031375b7e4422cccea56ab403ecedbd3ce1f0587acaa1999ae3910160405180910390a150601080546001600160a01b0319166001600160a01b0392909216919091179055565b60006113a4600080516020613bc183398151915260005b6000828152600e602052604081206116559083612070565b9392505050565b6000918252600d602090815260408084206001600160a01b0393909316845291905290205460ff1690565b6060600380546107b09061372a565b60006116a181611c58565b604080518082018252601981527f7472616e7366657228616464726573732c75696e74323536290000000000000060209182015281516001600160a01b0386169181019190915280820184905281518082038301815260608201909252600091611730917fa9059cbb2ab09eb219583f4a59a5d0623ade346d962bcd4e46b11da047c9049b919060800161398c565b60405160208183030381529060405290506000856001600160a01b03168260405161175b91906139bd565b6000604051808303816000865af19150503d8060008114611798576040519150601f19603f3d011682016040523d82523d6000602084013e61179d565b606091505b50509050806117dd5760405162461bcd60e51b815260206004820152600c60248201526b43616c6c206661696c65642160a01b60448201526064016108cf565b846001600160a01b0316866001600160a01b03167fc00a88ee4656f9bf9caef53a29be902b0017cf1e454eaed6526c08b8c2e106cf8660405161182291815260200190565b60405180910390a3505050505050565b610e7933838361207c565b6118473383611cfc565b6118635760405162461bcd60e51b81526004016108cf9061379c565b61186f8484848461214b565b50505050565b606061079b8261217e565b6000818152600e6020526040812061079b9061227a565b600080516020613bc18339815191526118af81611c58565b6001600160a01b03831660009081526013602052604090205460ff16151582151514156118ee5760405162461bcd60e51b81526004016108cf9061395d565b6001600160a01b03831660008181526013602090815260409182902054825160ff90911615158152851515918101919091527f9c90f0f72f5ff4b59e64bdfdf8225496601bf93480e88dd55d67c7a986028ee5910160405180910390a2506001600160a01b03919091166000908152601360205260409020805460ff1916911515919091179055565b6000828152600d602052604090206001015461199281611c58565b6109708383611f0e565b600080516020613bc18339815191526119b481611c58565b60008381526015602052604090205460ff16151582151514156119e95760405162461bcd60e51b81526004016108cf9061395d565b600083815260156020526040908190205490517ff15386cd714ec83a02645b963ccf152676dea6342631a7950b9b9d707b42ad9e91611a4291869160ff1690869092835290151560208301521515604082015260600190565b60405180910390a150600091825260156020526040909120805460ff1916911515919091179055565b611a75828261165c565b610e79576000828152600d602090815260408083206001600160a01b03851684529091529020805460ff19166001179055611aad3390565b6001600160a01b0316816001600160a01b0316837f2f8788117e7eff1d82e926ec794901d17c78024a50270940304540a733656f0d60405160405180910390a45050565b6000611655836001600160a01b038416612284565b60006001600160e01b03198216635a05180f60e01b148061079b575061079b826122d3565b6000818152600460205260409020546001600160a01b0316610f565760405162461bcd60e51b8152602060048201526018602482015277115490cdcc8c4e881a5b9d985b1a59081d1bdad95b88125160421b60448201526064016108cf565b6000818152600460205260408120546001600160a01b03168061079b5760405162461bcd60e51b8152602060048201526018602482015277115490cdcc8c4e881a5b9d985b1a59081d1bdad95b88125160421b60448201526064016108cf565b600081815260066020526040902080546001600160a01b0319166001600160a01b0384169081179091558190611c1f82611b8a565b6001600160a01b03167f8c5be1e5ebec7d5bd14f71427d1e84f3dd0314c0f7b2291e5b200ac8c7c3b92560405160405180910390a45050565b610f5681336122f8565b6000828152600460205260409020546001600160a01b0316611cdd5760405162461bcd60e51b815260206004820152602e60248201527f45524337323155524953746f726167653a2055524920736574206f66206e6f6e60448201526d32bc34b9ba32b73a103a37b5b2b760911b60648201526084016108cf565b6000828152600c602090815260409091208251610970928401906130b8565b600080611d0883611b8a565b9050806001600160a01b0316846001600160a01b03161480611d4f57506001600160a01b0380821660009081526007602090815260408083209388168352929052205460ff165b80611d735750836001600160a01b0316611d6884610833565b6001600160a01b0316145b949350505050565b826001600160a01b0316611d8e82611b8a565b6001600160a01b031614611db45760405162461bcd60e51b81526004016108cf906139d9565b6001600160a01b038216611e165760405162461bcd60e51b8152602060048201526024808201527f4552433732313a207472616e7366657220746f20746865207a65726f206164646044820152637265737360e01b60648201526084016108cf565b611e238383836001612351565b826001600160a01b0316611e3682611b8a565b6001600160a01b031614611e5c5760405162461bcd60e51b81526004016108cf906139d9565b600081815260066020908152604080832080546001600160a01b03199081169091556001600160a01b0387811680865260058552838620805460001901905590871680865283862080546001019055868652600490945282852080549092168417909155905184937fddf252ad1be2c89b69c2b068fc378daa952ba7f163c4a11628f55a4df523b3ef91a4505050565b611ef68282611a6b565b6000828152600e602052604090206109709082611af1565b611f18828261245c565b6000828152600e6020526040902061097090826124c3565b610f56816124d8565b610e79828260405180602001604052806000815250612518565b6127106001600160601b0382161115611fc15760405162461bcd60e51b815260206004820152602a60248201527f455243323938313a20726f79616c7479206665652077696c6c206578636565646044820152692073616c65507269636560b01b60648201526084016108cf565b6001600160a01b0382166120175760405162461bcd60e51b815260206004820152601b60248201527f455243323938313a20496e76616c696420706172616d6574657273000000000060448201526064016108cf565b6040805180820182526001600160a01b0393841681526001600160601b0392831660208083019182526000968752600190529190942093519051909116600160a01b029116179055565b6060601180546107b09061372a565b6000611655838361254b565b816001600160a01b0316836001600160a01b031614156120de5760405162461bcd60e51b815260206004820152601960248201527f4552433732313a20617070726f766520746f2063616c6c65720000000000000060448201526064016108cf565b6001600160a01b03838116600081815260076020908152604080832094871680845294825291829020805460ff191686151590811790915591519182527f17307eab39ab6107e8899845ad3d59bd9653f200f220920489ca2b5937696c31910160405180910390a3505050565b612156848484611d7b565b61216284848484612575565b61186f5760405162461bcd60e51b81526004016108cf90613a1e565b606061218982611b2b565b6000828152600c6020526040812080546121a29061372a565b80601f01602080910402602001604051908101604052809291908181526020018280546121ce9061372a565b801561221b5780601f106121f05761010080835404028352916020019161221b565b820191906000526020600020905b8154815290600101906020018083116121fe57829003601f168201915b50505050509050600061222c612061565b905080516000141561223f575092915050565b815115612271578082604051602001612259929190613a70565b60405160208183030381529060405292505050919050565b611d7384612682565b600061079b825490565b60008181526001830160205260408120546122cb5750815460018181018455600084815260208082209093018490558454848252828601909352604090209190915561079b565b50600061079b565b60006001600160e01b03198216637965db0b60e01b148061079b575061079b826126e8565b612302828261165c565b610e795761230f816126f3565b61231a836020612705565b60405160200161232b929190613a9f565b60408051601f198184030181529082905262461bcd60e51b82526108cf91600401613212565b6000828152601660205260409020546001600160a01b0316156123a95760405162461bcd60e51b815260206004820152601060248201526f546f6b656e206973206c6f636b65642160801b60448201526064016108cf565b6001600160a01b038416158015906123c957506001600160a01b03831615155b80156123e75750826001600160a01b0316846001600160a01b031614155b156124505760008281526014602052604090205461240490610760565b6124505760405162461bcd60e51b815260206004820181905260248201527f546f6b656e20636c617373206973206e6f74207472616e7366657261626c652160448201526064016108cf565b61186f848484846128a1565b612466828261165c565b15610e79576000828152600d602090815260408083206001600160a01b0385168085529252808320805460ff1916905551339285917ff6391f5c32d9c69d2a47ea670b442974b53935d1edc7fd64eb21e047a839171b9190a45050565b6000611655836001600160a01b0384166129d5565b6124e181612ac8565b6000818152600c6020526040902080546124fa9061372a565b159050610f56576000818152600c60205260408120610f569161313c565b6125228383612ae2565b61252f6000848484612575565b6109705760405162461bcd60e51b81526004016108cf90613a1e565b600082600001828154811061256257612562613870565b9060005260206000200154905092915050565b60006001600160a01b0384163b1561267757604051630a85bd0160e11b81526001600160a01b0385169063150b7a02906125b9903390899088908890600401613b14565b602060405180830381600087803b1580156125d357600080fd5b505af1925050508015612603575060408051601f3d908101601f1916820190925261260091810190613b47565b60015b61265d573d808015612631576040519150601f19603f3d011682016040523d82523d6000602084013e612636565b606091505b5080516126555760405162461bcd60e51b81526004016108cf90613a1e565b805181602001fd5b6001600160e01b031916630a85bd0160e11b149050611d73565b506001949350505050565b606061268d82611b2b565b6000612697612061565b905060008151116126b75760405180602001604052806000815250611655565b806126c184612c7b565b6040516020016126d2929190613a70565b6040516020818303038152906040529392505050565b600061079b82612d18565b606061079b6001600160a01b03831660145b6060600061271483600261382f565b61271f906002613b64565b67ffffffffffffffff81111561273757612737613284565b6040519080825280601f01601f191660200182016040528015612761576020820181803683370190505b509050600360fc1b8160008151811061277c5761277c613870565b60200101906001600160f81b031916908160001a905350600f60fb1b816001815181106127ab576127ab613870565b60200101906001600160f81b031916908160001a90535060006127cf84600261382f565b6127da906001613b64565b90505b6001811115612852576f181899199a1a9b1b9c1cb0b131b232b360811b85600f166010811061280e5761280e613870565b1a60f81b82828151811061282457612824613870565b60200101906001600160f81b031916908160001a90535060049490941c9361284b81613b7c565b90506127dd565b5083156116555760405162461bcd60e51b815260206004820181905260248201527f537472696e67733a20686578206c656e67746820696e73756666696369656e7460448201526064016108cf565b60018111156129105760405162461bcd60e51b815260206004820152603560248201527f455243373231456e756d657261626c653a20636f6e7365637574697665207472604482015274185b9cd9995c9cc81b9bdd081cdd5c1c1bdc9d1959605a1b60648201526084016108cf565b816001600160a01b03851661296c5761296781600a80546000838152600b60205260408120829055600182018355919091527fc65a7bb8d6351c1cf70c95a316cc6a92839c986682d98bc35f958f4883f9d2a80155565b61298f565b836001600160a01b0316856001600160a01b03161461298f5761298f8582612d3d565b6001600160a01b0384166129ab576129a681612dda565b6129ce565b846001600160a01b0316846001600160a01b0316146129ce576129ce8482612e89565b5050505050565b60008181526001830160205260408120548015612abe5760006129f9600183613b93565b8554909150600090612a0d90600190613b93565b9050818114612a72576000866000018281548110612a2d57612a2d613870565b9060005260206000200154905080876000018481548110612a5057612a50613870565b6000918252602080832090910192909255918252600188019052604090208390555b8554869080612a8357612a83613baa565b60019003818190600052602060002001600090559055856001016000868152602001908152602001600020600090556001935050505061079b565b600091505061079b565b612ad181612ecd565b600090815260016020526040812055565b6001600160a01b038216612b385760405162461bcd60e51b815260206004820181905260248201527f4552433732313a206d696e7420746f20746865207a65726f206164647265737360448201526064016108cf565b6000818152600460205260409020546001600160a01b031615612b9d5760405162461bcd60e51b815260206004820152601c60248201527f4552433732313a20746f6b656e20616c7265616479206d696e7465640000000060448201526064016108cf565b612bab600083836001612351565b6000818152600460205260409020546001600160a01b031615612c105760405162461bcd60e51b815260206004820152601c60248201527f4552433732313a20746f6b656e20616c7265616479206d696e7465640000000060448201526064016108cf565b6001600160a01b038216600081815260056020908152604080832080546001019055848352600490915280822080546001600160a01b0319168417905551839291907fddf252ad1be2c89b69c2b068fc378daa952ba7f163c4a11628f55a4df523b3ef908290a45050565b60606000612c8883612f70565b600101905060008167ffffffffffffffff811115612ca857612ca8613284565b6040519080825280601f01601f191660200182016040528015612cd2576020820181803683370190505b5090508181016020015b600019016f181899199a1a9b1b9c1cb0b131b232b360811b600a86061a8153600a8504945084612d0b57612d10565b612cdc565b509392505050565b60006001600160e01b0319821663780e9d6360e01b148061079b575061079b82613048565b60006001612d4a84611314565b612d549190613b93565b600083815260096020526040902054909150808214612da7576001600160a01b03841660009081526008602090815260408083208584528252808320548484528184208190558352600990915290208190555b5060009182526009602090815260408084208490556001600160a01b039094168352600881528383209183525290812055565b600a54600090612dec90600190613b93565b6000838152600b6020526040812054600a8054939450909284908110612e1457612e14613870565b9060005260206000200154905080600a8381548110612e3557612e35613870565b6000918252602080832090910192909255828152600b9091526040808220849055858252812055600a805480612e6d57612e6d613baa565b6001900381819060005260206000200160009055905550505050565b6000612e9483611314565b6001600160a01b039093166000908152600860209081526040808320868452825280832085905593825260099052919091209190915550565b6000612ed882611b8a565b9050612ee8816000846001612351565b612ef182611b8a565b600083815260066020908152604080832080546001600160a01b03199081169091556001600160a01b0385168085526005845282852080546000190190558785526004909352818420805490911690555192935084927fddf252ad1be2c89b69c2b068fc378daa952ba7f163c4a11628f55a4df523b3ef908390a45050565b60008072184f03e93ff9f4daa797ed6e38ed64bf6a1f0160401b8310612faf5772184f03e93ff9f4daa797ed6e38ed64bf6a1f0160401b830492506040015b6d04ee2d6d415b85acef81000000008310612fdb576d04ee2d6d415b85acef8100000000830492506020015b662386f26fc100008310612ff957662386f26fc10000830492506010015b6305f5e1008310613011576305f5e100830492506008015b612710831061302557612710830492506004015b60648310613037576064830492506002015b600a831061079b5760010192915050565b60006001600160e01b031982166380ac58cd60e01b148061307957506001600160e01b03198216635b5e139f60e01b145b8061079b575061079b8260006001600160e01b0319821663152a902d60e11b148061079b57506301ffc9a760e01b6001600160e01b031983161461079b565b8280546130c49061372a565b90600052602060002090601f0160209004810192826130e6576000855561312c565b82601f106130ff57805160ff191683800117855561312c565b8280016001018555821561312c579182015b8281111561312c578251825591602001919060010190613111565b50613138929150613172565b5090565b5080546131489061372a565b6000825580601f10613158575050565b601f016020900490600052602060002090810190610f5691905b5b808211156131385760008155600101613173565b6001600160e01b031981168114610f5657600080fd5b6000602082840312156131af57600080fd5b813561165581613187565b60005b838110156131d55781810151838201526020016131bd565b8381111561186f5750506000910152565b600081518084526131fe8160208601602086016131ba565b601f01601f19169290920160200192915050565b60208152600061165560208301846131e6565b60006020828403121561323757600080fd5b5035919050565b80356001600160a01b038116811461325557600080fd5b919050565b6000806040838503121561326d57600080fd5b6132768361323e565b946020939093013593505050565b634e487b7160e01b600052604160045260246000fd5b604051601f8201601f1916810167ffffffffffffffff811182821017156132c3576132c3613284565b604052919050565b600082601f8301126132dc57600080fd5b813567ffffffffffffffff8111156132f6576132f6613284565b613309601f8201601f191660200161329a565b81815284602083860101111561331e57600080fd5b816020850160208301376000918101602001919091529392505050565b6000806040838503121561334e57600080fd5b82359150602083013567ffffffffffffffff81111561336c57600080fd5b613378858286016132cb565b9150509250929050565b600080600080600060a0868803121561339a57600080fd5b6133a38661323e565b945060208601359350604086013592506133bf6060870161323e565b9150608086013567ffffffffffffffff8111156133db57600080fd5b6133e7888289016132cb565b9150509295509295909350565b60008060006060848603121561340957600080fd5b6134128461323e565b92506134206020850161323e565b9150604084013590509250925092565b6000806000806080858703121561344657600080fd5b843593506020850135925061345d6040860161323e565b9150606085013567ffffffffffffffff81111561347957600080fd5b613485878288016132cb565b91505092959194509250565b600080604083850312156134a457600080fd5b50508035926020909101359150565b600080604083850312156134c657600080fd5b823591506134d66020840161323e565b90509250929050565b6000602082840312156134f157600080fd5b6116558261323e565b80356001600160601b038116811461325557600080fd5b600080600080600060a0868803121561352957600080fd5b6135328661323e565b9450602061354181880161323e565b945061354f6040880161323e565b9350606087013567ffffffffffffffff8082111561356c57600080fd5b818901915089601f83011261358057600080fd5b81358181111561359257613592613284565b8060051b91506135a384830161329a565b818152918301840191848101908c8411156135bd57600080fd5b938501935b838510156135e2576135d38561323e565b825293850193908501906135c2565b8097505050505050506135f7608087016134fa565b90509295509295909350565b60006020828403121561361557600080fd5b813567ffffffffffffffff81111561362c57600080fd5b611d73848285016132cb565b60006020828403121561364a57600080fd5b611655826134fa565b8035801515811461325557600080fd5b6000806040838503121561367657600080fd5b61367f8361323e565b91506134d660208401613653565b600080600080608085870312156136a357600080fd5b6136ac8561323e565b93506136ba6020860161323e565b925060408501359150606085013567ffffffffffffffff81111561347957600080fd5b600080604083850312156136f057600080fd5b823591506134d660208401613653565b6000806040838503121561371357600080fd5b61371c8361323e565b91506134d66020840161323e565b600181811c9082168061373e57607f821691505b6020821081141561375f57634e487b7160e01b600052602260045260246000fd5b50919050565b60018060a01b038516815283602082015282604082015260806060820152600061379260808301846131e6565b9695505050505050565b6020808252602d908201527f4552433732313a2063616c6c6572206973206e6f7420746f6b656e206f776e6560408201526c1c881bdc88185c1c1c9bdd9959609a1b606082015260800190565b602080825260169082015275596f7520617265206e6f7420746865206f776e65722160501b604082015260600190565b634e487b7160e01b600052601160045260246000fd5b600081600019048311821515161561384957613849613819565b500290565b60008261386b57634e487b7160e01b600052601260045260246000fd5b500490565b634e487b7160e01b600052603260045260246000fd5b600060001982141561389a5761389a613819565b5060010190565b60408152600080845481600182811c9150808316806138c157607f831692505b60208084108214156138e157634e487b7160e01b86526022600452602486fd5b604088018490526060880182801561390057600181146139115761393c565b60ff1987168252828201975061393c565b60008c81526020902060005b878110156139365781548482015290860190840161391d565b83019850505b505087860381890152505050505061395481856131e6565b95945050505050565b60208082526015908201527456616c756520697320616c7265616479207365742160581b604082015260600190565b6001600160e01b03198316815281516000906139af8160048501602087016131ba565b919091016004019392505050565b600082516139cf8184602087016131ba565b9190910192915050565b60208082526025908201527f4552433732313a207472616e736665722066726f6d20696e636f72726563742060408201526437bbb732b960d91b606082015260800190565b60208082526032908201527f4552433732313a207472616e7366657220746f206e6f6e20455243373231526560408201527131b2b4bb32b91034b6b83632b6b2b73a32b960711b606082015260800190565b60008351613a828184602088016131ba565b835190830190613a968183602088016131ba565b01949350505050565b7f416363657373436f6e74726f6c3a206163636f756e7420000000000000000000815260008351613ad78160178501602088016131ba565b7001034b99036b4b9b9b4b733903937b6329607d1b6017918401918201528351613b088160288401602088016131ba565b01602801949350505050565b6001600160a01b0385811682528416602082015260408101839052608060608201819052600090613792908301846131e6565b600060208284031215613b5957600080fd5b815161165581613187565b60008219821115613b7757613b77613819565b500190565b600081613b8b57613b8b613819565b506000190190565b600082821015613ba557613ba5613819565b500390565b634e487b7160e01b600052603160045260246000fdfe71f3d55856e4058ed06ee057d79ada615f65cdf5f9ee88181b914225088f834fa2646970667358221220604bf0c2c4f359dedaa625543809cf264219cd93697161b4fc238e10efbb7b4e64736f6c6343000809003368747470733a2f2f7777772e656c6466616c6c2e636f6d2f6368617261637465724d657461646174612f",
  "devdoc": {
    "kind": "dev",
    "methods": {
      "approve(address,uint256)": {
        "details": "See {IERC721-approve}."
      },
      "balanceOf(address)": {
        "details": "See {IERC721-balanceOf}."
      },
      "getApproved(uint256)": {
        "details": "See {IERC721-getApproved}."
      },
      "getRoleAdmin(bytes32)": {
        "details": "Returns the admin role that controls `role`. See {grantRole} and {revokeRole}. To change a role's admin, use {_setRoleAdmin}."
      },
      "getRoleMember(bytes32,uint256)": {
        "details": "Returns one of the accounts that have `role`. `index` must be a value between 0 and {getRoleMemberCount}, non-inclusive. Role bearers are not sorted in any particular way, and their ordering may change at any point. WARNING: When using {getRoleMember} and {getRoleMemberCount}, make sure you perform all queries on the same block. See the following https://forum.openzeppelin.com/t/iterating-over-elements-on-enumerableset-in-openzeppelin-contracts/2296[forum post] for more information."
      },
      "getRoleMemberCount(bytes32)": {
        "details": "Returns the number of accounts that have `role`. Can be used together with {getRoleMember} to enumerate all bearers of a role."
      },
      "grantRole(bytes32,address)": {
        "details": "Grants `role` to `account`. If `account` had not been already granted `role`, emits a {RoleGranted} event. Requirements: - the caller must have ``role``'s admin role. May emit a {RoleGranted} event."
      },
      "hasRole(bytes32,address)": {
        "details": "Returns `true` if `account` has been granted `role`."
      },
      "isApprovedForAll(address,address)": {
        "details": "See {IERC721-isApprovedForAll}."
      },
      "name()": {
        "details": "See {IERC721Metadata-name}."
      },
      "ownerOf(uint256)": {
        "details": "See {IERC721-ownerOf}."
      },
      "renounceRole(bytes32,address)": {
        "details": "Revokes `role` from the calling account. Roles are often managed via {grantRole} and {revokeRole}: this function's purpose is to provide a mechanism for accounts to lose their privileges if they are compromised (such as when a trusted device is misplaced). If the calling account had been revoked `role`, emits a {RoleRevoked} event. Requirements: - the caller must be `account`. May emit a {RoleRevoked} event."
      },
      "revokeRole(bytes32,address)": {
        "details": "Revokes `role` from `account`. If `account` had been granted `role`, emits a {RoleRevoked} event. Requirements: - the caller must have ``role``'s admin role. May emit a {RoleRevoked} event."
      },
      "royaltyInfo(uint256,uint256)": {
        "details": "Returns how much royalty is owed and to whom, based on a sale price that may be denominated in any unit of exchange. The royalty amount is denominated and should be paid in that same unit of exchange."
      },
      "safeTransferFrom(address,address,uint256)": {
        "details": "See {IERC721-safeTransferFrom}."
      },
      "safeTransferFrom(address,address,uint256,bytes)": {
        "details": "See {IERC721-safeTransferFrom}."
      },
      "setApprovalForAll(address,bool)": {
        "details": "See {IERC721-setApprovalForAll}."
      },
      "symbol()": {
        "details": "See {IERC721Metadata-symbol}."
      },
      "tokenByIndex(uint256)": {
        "details": "See {IERC721Enumerable-tokenByIndex}."
      },
      "tokenOfOwnerByIndex(address,uint256)": {
        "details": "See {IERC721Enumerable-tokenOfOwnerByIndex}."
      },
      "totalSupply()": {
        "details": "See {IERC721Enumerable-totalSupply}."
      },
      "transferFrom(address,address,uint256)": {
        "details": "See {IERC721-transferFrom}."
      }
    },
    "version": 1
  },
  "userdoc": {
    "kind": "user",
    "methods": {},
    "version": 1
  },
  "storageLayout": {
    "storage": [
      {
        "astId": 2952,
        "contract": "contracts/CharacterNftContract.sol:CharacterNftContract",
        "label": "_defaultRoyaltyInfo",
        "offset": 0,
        "slot": "0",
        "type": "t_struct(RoyaltyInfo)2949_storage"
      },
      {
        "astId": 2957,
        "contract": "contracts/CharacterNftContract.sol:CharacterNftContract",
        "label": "_tokenRoyaltyInfo",
        "offset": 0,
        "slot": "1",
        "type": "t_mapping(t_uint256,t_struct(RoyaltyInfo)2949_storage)"
      },
      {
        "astId": 1317,
        "contract": "contracts/CharacterNftContract.sol:CharacterNftContract",
        "label": "_name",
        "offset": 0,
        "slot": "2",
        "type": "t_string_storage"
      },
      {
        "astId": 1319,
        "contract": "contracts/CharacterNftContract.sol:CharacterNftContract",
        "label": "_symbol",
        "offset": 0,
        "slot": "3",
        "type": "t_string_storage"
      },
      {
        "astId": 1323,
        "contract": "contracts/CharacterNftContract.sol:CharacterNftContract",
        "label": "_owners",
        "offset": 0,
        "slot": "4",
        "type": "t_mapping(t_uint256,t_address)"
      },
      {
        "astId": 1327,
        "contract": "contracts/CharacterNftContract.sol:CharacterNftContract",
        "label": "_balances",
        "offset": 0,
        "slot": "5",
        "type": "t_mapping(t_address,t_uint256)"
      },
      {
        "astId": 1331,
        "contract": "contracts/CharacterNftContract.sol:CharacterNftContract",
        "label": "_tokenApprovals",
        "offset": 0,
        "slot": "6",
        "type": "t_mapping(t_uint256,t_address)"
      },
      {
        "astId": 1337,
        "contract": "contracts/CharacterNftContract.sol:CharacterNftContract",
        "label": "_operatorApprovals",
        "offset": 0,
        "slot": "7",
        "type": "t_mapping(t_address,t_mapping(t_address,t_bool))"
      },
      {
        "astId": 2367,
        "contract": "contracts/CharacterNftContract.sol:CharacterNftContract",
        "label": "_ownedTokens",
        "offset": 0,
        "slot": "8",
        "type": "t_mapping(t_address,t_mapping(t_uint256,t_uint256))"
      },
      {
        "astId": 2371,
        "contract": "contracts/CharacterNftContract.sol:CharacterNftContract",
        "label": "_ownedTokensIndex",
        "offset": 0,
        "slot": "9",
        "type": "t_mapping(t_uint256,t_uint256)"
      },
      {
        "astId": 2374,
        "contract": "contracts/CharacterNftContract.sol:CharacterNftContract",
        "label": "_allTokens",
        "offset": 0,
        "slot": "10",
        "type": "t_array(t_uint256)dyn_storage"
      },
      {
        "astId": 2378,
        "contract": "contracts/CharacterNftContract.sol:CharacterNftContract",
        "label": "_allTokensIndex",
        "offset": 0,
        "slot": "11",
        "type": "t_mapping(t_uint256,t_uint256)"
      },
      {
        "astId": 2765,
        "contract": "contracts/CharacterNftContract.sol:CharacterNftContract",
        "label": "_tokenURIs",
        "offset": 0,
        "slot": "12",
        "type": "t_mapping(t_uint256,t_string_storage)"
      },
      {
        "astId": 24,
        "contract": "contracts/CharacterNftContract.sol:CharacterNftContract",
        "label": "_roles",
        "offset": 0,
        "slot": "13",
        "type": "t_mapping(t_bytes32,t_struct(RoleData)19_storage)"
      },
      {
        "astId": 334,
        "contract": "contracts/CharacterNftContract.sol:CharacterNftContract",
        "label": "_roleMembers",
        "offset": 0,
        "slot": "14",
        "type": "t_mapping(t_bytes32,t_struct(AddressSet)4961_storage)"
      },
      {
        "astId": 5285,
        "contract": "contracts/CharacterNftContract.sol:CharacterNftContract",
        "label": "_tokenIdCounter",
        "offset": 0,
        "slot": "15",
        "type": "t_struct(Counter)3491_storage"
      },
      {
        "astId": 5287,
        "contract": "contracts/CharacterNftContract.sol:CharacterNftContract",
        "label": "_vaultAddress",
        "offset": 0,
        "slot": "16",
        "type": "t_address"
      },
      {
        "astId": 5289,
        "contract": "contracts/CharacterNftContract.sol:CharacterNftContract",
        "label": "_royaltyNumerator",
        "offset": 20,
        "slot": "16",
        "type": "t_uint96"
      },
      {
        "astId": 5291,
        "contract": "contracts/CharacterNftContract.sol:CharacterNftContract",
        "label": "_baseUri",
        "offset": 0,
        "slot": "17",
        "type": "t_string_storage"
      },
      {
        "astId": 5293,
        "contract": "contracts/CharacterNftContract.sol:CharacterNftContract",
        "label": "_initialised",
        "offset": 0,
        "slot": "18",
        "type": "t_bool"
      },
      {
        "astId": 5297,
        "contract": "contracts/CharacterNftContract.sol:CharacterNftContract",
        "label": "_whitelistedGuilds",
        "offset": 0,
        "slot": "19",
        "type": "t_mapping(t_address,t_bool)"
      },
      {
        "astId": 5301,
        "contract": "contracts/CharacterNftContract.sol:CharacterNftContract",
        "label": "_characterClass",
        "offset": 0,
        "slot": "20",
        "type": "t_mapping(t_uint256,t_bytes32)"
      },
      {
        "astId": 5305,
        "contract": "contracts/CharacterNftContract.sol:CharacterNftContract",
        "label": "_nonTransferable",
        "offset": 0,
        "slot": "21",
        "type": "t_mapping(t_bytes32,t_bool)"
      },
      {
        "astId": 5309,
        "contract": "contracts/CharacterNftContract.sol:CharacterNftContract",
        "label": "_characterLockedAt",
        "offset": 0,
        "slot": "22",
        "type": "t_mapping(t_uint256,t_address)"
      }
    ],
    "types": {
      "t_address": {
        "encoding": "inplace",
        "label": "address",
        "numberOfBytes": "20"
      },
      "t_array(t_bytes32)dyn_storage": {
        "base": "t_bytes32",
        "encoding": "dynamic_array",
        "label": "bytes32[]",
        "numberOfBytes": "32"
      },
      "t_array(t_uint256)dyn_storage": {
        "base": "t_uint256",
        "encoding": "dynamic_array",
        "label": "uint256[]",
        "numberOfBytes": "32"
      },
      "t_bool": {
        "encoding": "inplace",
        "label": "bool",
        "numberOfBytes": "1"
      },
      "t_bytes32": {
        "encoding": "inplace",
        "label": "bytes32",
        "numberOfBytes": "32"
      },
      "t_mapping(t_address,t_bool)": {
        "encoding": "mapping",
        "key": "t_address",
        "label": "mapping(address => bool)",
        "numberOfBytes": "32",
        "value": "t_bool"
      },
      "t_mapping(t_address,t_mapping(t_address,t_bool))": {
        "encoding": "mapping",
        "key": "t_address",
        "label": "mapping(address => mapping(address => bool))",
        "numberOfBytes": "32",
        "value": "t_mapping(t_address,t_bool)"
      },
      "t_mapping(t_address,t_mapping(t_uint256,t_uint256))": {
        "encoding": "mapping",
        "key": "t_address",
        "label": "mapping(address => mapping(uint256 => uint256))",
        "numberOfBytes": "32",
        "value": "t_mapping(t_uint256,t_uint256)"
      },
      "t_mapping(t_address,t_uint256)": {
        "encoding": "mapping",
        "key": "t_address",
        "label": "mapping(address => uint256)",
        "numberOfBytes": "32",
        "value": "t_uint256"
      },
      "t_mapping(t_bytes32,t_bool)": {
        "encoding": "mapping",
        "key": "t_bytes32",
        "label": "mapping(bytes32 => bool)",
        "numberOfBytes": "32",
        "value": "t_bool"
      },
      "t_mapping(t_bytes32,t_struct(AddressSet)4961_storage)": {
        "encoding": "mapping",
        "key": "t_bytes32",
        "label": "mapping(bytes32 => struct EnumerableSet.AddressSet)",
        "numberOfBytes": "32",
        "value": "t_struct(AddressSet)4961_storage"
      },
      "t_mapping(t_bytes32,t_struct(RoleData)19_storage)": {
        "encoding": "mapping",
        "key": "t_bytes32",
        "label": "mapping(bytes32 => struct AccessControl.RoleData)",
        "numberOfBytes": "32",
        "value": "t_struct(RoleData)19_storage"
      },
      "t_mapping(t_bytes32,t_uint256)": {
        "encoding": "mapping",
        "key": "t_bytes32",
        "label": "mapping(bytes32 => uint256)",
        "numberOfBytes": "32",
        "value": "t_uint256"
      },
      "t_mapping(t_uint256,t_address)": {
        "encoding": "mapping",
        "key": "t_uint256",
        "label": "mapping(uint256 => address)",
        "numberOfBytes": "32",
        "value": "t_address"
      },
      "t_mapping(t_uint256,t_bytes32)": {
        "encoding": "mapping",
        "key": "t_uint256",
        "label": "mapping(uint256 => bytes32)",
        "numberOfBytes": "32",
        "value": "t_bytes32"
      },
      "t_mapping(t_uint256,t_string_storage)": {
        "encoding": "mapping",
        "key": "t_uint256",
        "label": "mapping(uint256 => string)",
        "numberOfBytes": "32",
        "value": "t_string_storage"
      },
      "t_mapping(t_uint256,t_struct(RoyaltyInfo)2949_storage)": {
        "encoding": "mapping",
        "key": "t_uint256",
        "label": "mapping(uint256 => struct ERC2981.RoyaltyInfo)",
        "numberOfBytes": "32",
        "value": "t_struct(RoyaltyInfo)2949_storage"
      },
      "t_mapping(t_uint256,t_uint256)": {
        "encoding": "mapping",
        "key": "t_uint256",
        "label": "mapping(uint256 => uint256)",
        "numberOfBytes": "32",
        "value": "t_uint256"
      },
      "t_string_storage": {
        "encoding": "bytes",
        "label": "string",
        "numberOfBytes": "32"
      },
      "t_struct(AddressSet)4961_storage": {
        "encoding": "inplace",
        "label": "struct EnumerableSet.AddressSet",
        "members": [
          {
            "astId": 4960,
            "contract": "contracts/CharacterNftContract.sol:CharacterNftContract",
            "label": "_inner",
            "offset": 0,
            "slot": "0",
            "type": "t_struct(Set)4646_storage"
          }
        ],
        "numberOfBytes": "64"
      },
      "t_struct(Counter)3491_storage": {
        "encoding": "inplace",
        "label": "struct Counters.Counter",
        "members": [
          {
            "astId": 3490,
            "contract": "contracts/CharacterNftContract.sol:CharacterNftContract",
            "label": "_value",
            "offset": 0,
            "slot": "0",
            "type": "t_uint256"
          }
        ],
        "numberOfBytes": "32"
      },
      "t_struct(RoleData)19_storage": {
        "encoding": "inplace",
        "label": "struct AccessControl.RoleData",
        "members": [
          {
            "astId": 16,
            "contract": "contracts/CharacterNftContract.sol:CharacterNftContract",
            "label": "members",
            "offset": 0,
            "slot": "0",
            "type": "t_mapping(t_address,t_bool)"
          },
          {
            "astId": 18,
            "contract": "contracts/CharacterNftContract.sol:CharacterNftContract",
            "label": "adminRole",
            "offset": 0,
            "slot": "1",
            "type": "t_bytes32"
          }
        ],
        "numberOfBytes": "64"
      },
      "t_struct(RoyaltyInfo)2949_storage": {
        "encoding": "inplace",
        "label": "struct ERC2981.RoyaltyInfo",
        "members": [
          {
            "astId": 2946,
            "contract": "contracts/CharacterNftContract.sol:CharacterNftContract",
            "label": "receiver",
            "offset": 0,
            "slot": "0",
            "type": "t_address"
          },
          {
            "astId": 2948,
            "contract": "contracts/CharacterNftContract.sol:CharacterNftContract",
            "label": "royaltyFraction",
            "offset": 20,
            "slot": "0",
            "type": "t_uint96"
          }
        ],
        "numberOfBytes": "32"
      },
      "t_struct(Set)4646_storage": {
        "encoding": "inplace",
        "label": "struct EnumerableSet.Set",
        "members": [
          {
            "astId": 4641,
            "contract": "contracts/CharacterNftContract.sol:CharacterNftContract",
            "label": "_values",
            "offset": 0,
            "slot": "0",
            "type": "t_array(t_bytes32)dyn_storage"
          },
          {
            "astId": 4645,
            "contract": "contracts/CharacterNftContract.sol:CharacterNftContract",
            "label": "_indexes",
            "offset": 0,
            "slot": "1",
            "type": "t_mapping(t_bytes32,t_uint256)"
          }
        ],
        "numberOfBytes": "64"
      },
      "t_uint256": {
        "encoding": "inplace",
        "label": "uint256",
        "numberOfBytes": "32"
      },
      "t_uint96": {
        "encoding": "inplace",
        "label": "uint96",
        "numberOfBytes": "12"
      }
    }
  }
}